{
  "contractName": "Color",
  "abi": [
    {
      "inputs": [],
      "stateMutability": "nonpayable",
      "type": "constructor"
    },
    {
      "anonymous": false,
      "inputs": [
        {
          "indexed": true,
          "internalType": "address",
          "name": "owner",
          "type": "address"
        },
        {
          "indexed": true,
          "internalType": "address",
          "name": "approved",
          "type": "address"
        },
        {
          "indexed": true,
          "internalType": "uint256",
          "name": "tokenId",
          "type": "uint256"
        }
      ],
      "name": "Approval",
      "type": "event"
    },
    {
      "anonymous": false,
      "inputs": [
        {
          "indexed": true,
          "internalType": "address",
          "name": "owner",
          "type": "address"
        },
        {
          "indexed": true,
          "internalType": "address",
          "name": "operator",
          "type": "address"
        },
        {
          "indexed": false,
          "internalType": "bool",
          "name": "approved",
          "type": "bool"
        }
      ],
      "name": "ApprovalForAll",
      "type": "event"
    },
    {
      "anonymous": false,
      "inputs": [
        {
          "indexed": false,
          "internalType": "address",
          "name": "account",
          "type": "address"
        }
      ],
      "name": "Paused",
      "type": "event"
    },
    {
      "anonymous": false,
      "inputs": [
        {
          "indexed": true,
          "internalType": "bytes32",
          "name": "role",
          "type": "bytes32"
        },
        {
          "indexed": true,
          "internalType": "bytes32",
          "name": "previousAdminRole",
          "type": "bytes32"
        },
        {
          "indexed": true,
          "internalType": "bytes32",
          "name": "newAdminRole",
          "type": "bytes32"
        }
      ],
      "name": "RoleAdminChanged",
      "type": "event"
    },
    {
      "anonymous": false,
      "inputs": [
        {
          "indexed": true,
          "internalType": "bytes32",
          "name": "role",
          "type": "bytes32"
        },
        {
          "indexed": true,
          "internalType": "address",
          "name": "account",
          "type": "address"
        },
        {
          "indexed": true,
          "internalType": "address",
          "name": "sender",
          "type": "address"
        }
      ],
      "name": "RoleGranted",
      "type": "event"
    },
    {
      "anonymous": false,
      "inputs": [
        {
          "indexed": true,
          "internalType": "bytes32",
          "name": "role",
          "type": "bytes32"
        },
        {
          "indexed": true,
          "internalType": "address",
          "name": "account",
          "type": "address"
        },
        {
          "indexed": true,
          "internalType": "address",
          "name": "sender",
          "type": "address"
        }
      ],
      "name": "RoleRevoked",
      "type": "event"
    },
    {
      "anonymous": false,
      "inputs": [
        {
          "indexed": true,
          "internalType": "address",
          "name": "from",
          "type": "address"
        },
        {
          "indexed": true,
          "internalType": "address",
          "name": "to",
          "type": "address"
        },
        {
          "indexed": true,
          "internalType": "uint256",
          "name": "tokenId",
          "type": "uint256"
        }
      ],
      "name": "Transfer",
      "type": "event"
    },
    {
      "anonymous": false,
      "inputs": [
        {
          "indexed": false,
          "internalType": "address",
          "name": "account",
          "type": "address"
        }
      ],
      "name": "Unpaused",
      "type": "event"
    },
    {
      "inputs": [],
      "name": "DEFAULT_ADMIN_ROLE",
      "outputs": [
        {
          "internalType": "bytes32",
          "name": "",
          "type": "bytes32"
        }
      ],
      "stateMutability": "view",
      "type": "function",
      "constant": true
    },
    {
      "inputs": [],
      "name": "MINTER_ROLE",
      "outputs": [
        {
          "internalType": "bytes32",
          "name": "",
          "type": "bytes32"
        }
      ],
      "stateMutability": "view",
      "type": "function",
      "constant": true
    },
    {
      "inputs": [],
      "name": "PAUSER_ROLE",
      "outputs": [
        {
          "internalType": "bytes32",
          "name": "",
          "type": "bytes32"
        }
      ],
      "stateMutability": "view",
      "type": "function",
      "constant": true
    },
    {
      "inputs": [
        {
          "internalType": "address",
          "name": "to",
          "type": "address"
        },
        {
          "internalType": "uint256",
          "name": "tokenId",
          "type": "uint256"
        }
      ],
      "name": "approve",
      "outputs": [],
      "stateMutability": "nonpayable",
      "type": "function"
    },
    {
      "inputs": [
        {
          "internalType": "address",
          "name": "owner",
          "type": "address"
        }
      ],
      "name": "balanceOf",
      "outputs": [
        {
          "internalType": "uint256",
          "name": "",
          "type": "uint256"
        }
      ],
      "stateMutability": "view",
      "type": "function",
      "constant": true
    },
    {
      "inputs": [
        {
          "internalType": "uint256",
          "name": "tokenId",
          "type": "uint256"
        }
      ],
      "name": "burn",
      "outputs": [],
      "stateMutability": "nonpayable",
      "type": "function"
    },
    {
      "inputs": [
        {
          "internalType": "uint256",
          "name": "",
          "type": "uint256"
        }
      ],
      "name": "colors",
      "outputs": [
        {
          "internalType": "string",
          "name": "",
          "type": "string"
        }
      ],
      "stateMutability": "view",
      "type": "function",
      "constant": true
    },
    {
      "inputs": [
        {
          "internalType": "uint256",
          "name": "tokenId",
          "type": "uint256"
        }
      ],
      "name": "getApproved",
      "outputs": [
        {
          "internalType": "address",
          "name": "",
          "type": "address"
        }
      ],
      "stateMutability": "view",
      "type": "function",
      "constant": true
    },
    {
      "inputs": [
        {
          "internalType": "bytes32",
          "name": "role",
          "type": "bytes32"
        }
      ],
      "name": "getRoleAdmin",
      "outputs": [
        {
          "internalType": "bytes32",
          "name": "",
          "type": "bytes32"
        }
      ],
      "stateMutability": "view",
      "type": "function",
      "constant": true
    },
    {
      "inputs": [
        {
          "internalType": "bytes32",
          "name": "role",
          "type": "bytes32"
        },
        {
          "internalType": "uint256",
          "name": "index",
          "type": "uint256"
        }
      ],
      "name": "getRoleMember",
      "outputs": [
        {
          "internalType": "address",
          "name": "",
          "type": "address"
        }
      ],
      "stateMutability": "view",
      "type": "function",
      "constant": true
    },
    {
      "inputs": [
        {
          "internalType": "bytes32",
          "name": "role",
          "type": "bytes32"
        }
      ],
      "name": "getRoleMemberCount",
      "outputs": [
        {
          "internalType": "uint256",
          "name": "",
          "type": "uint256"
        }
      ],
      "stateMutability": "view",
      "type": "function",
      "constant": true
    },
    {
      "inputs": [
        {
          "internalType": "bytes32",
          "name": "role",
          "type": "bytes32"
        },
        {
          "internalType": "address",
          "name": "account",
          "type": "address"
        }
      ],
      "name": "grantRole",
      "outputs": [],
      "stateMutability": "nonpayable",
      "type": "function"
    },
    {
      "inputs": [
        {
          "internalType": "bytes32",
          "name": "role",
          "type": "bytes32"
        },
        {
          "internalType": "address",
          "name": "account",
          "type": "address"
        }
      ],
      "name": "hasRole",
      "outputs": [
        {
          "internalType": "bool",
          "name": "",
          "type": "bool"
        }
      ],
      "stateMutability": "view",
      "type": "function",
      "constant": true
    },
    {
      "inputs": [
        {
          "internalType": "address",
          "name": "owner",
          "type": "address"
        },
        {
          "internalType": "address",
          "name": "operator",
          "type": "address"
        }
      ],
      "name": "isApprovedForAll",
      "outputs": [
        {
          "internalType": "bool",
          "name": "",
          "type": "bool"
        }
      ],
      "stateMutability": "view",
      "type": "function",
      "constant": true
    },
    {
      "inputs": [],
      "name": "name",
      "outputs": [
        {
          "internalType": "string",
          "name": "",
          "type": "string"
        }
      ],
      "stateMutability": "view",
      "type": "function",
      "constant": true
    },
    {
      "inputs": [
        {
          "internalType": "uint256",
          "name": "tokenId",
          "type": "uint256"
        }
      ],
      "name": "ownerOf",
      "outputs": [
        {
          "internalType": "address",
          "name": "",
          "type": "address"
        }
      ],
      "stateMutability": "view",
      "type": "function",
      "constant": true
    },
    {
      "inputs": [],
      "name": "pause",
      "outputs": [],
      "stateMutability": "nonpayable",
      "type": "function"
    },
    {
      "inputs": [],
      "name": "paused",
      "outputs": [
        {
          "internalType": "bool",
          "name": "",
          "type": "bool"
        }
      ],
      "stateMutability": "view",
      "type": "function",
      "constant": true
    },
    {
      "inputs": [
        {
          "internalType": "bytes32",
          "name": "role",
          "type": "bytes32"
        },
        {
          "internalType": "address",
          "name": "account",
          "type": "address"
        }
      ],
      "name": "renounceRole",
      "outputs": [],
      "stateMutability": "nonpayable",
      "type": "function"
    },
    {
      "inputs": [
        {
          "internalType": "bytes32",
          "name": "role",
          "type": "bytes32"
        },
        {
          "internalType": "address",
          "name": "account",
          "type": "address"
        }
      ],
      "name": "revokeRole",
      "outputs": [],
      "stateMutability": "nonpayable",
      "type": "function"
    },
    {
      "inputs": [
        {
          "internalType": "address",
          "name": "from",
          "type": "address"
        },
        {
          "internalType": "address",
          "name": "to",
          "type": "address"
        },
        {
          "internalType": "uint256",
          "name": "tokenId",
          "type": "uint256"
        }
      ],
      "name": "safeTransferFrom",
      "outputs": [],
      "stateMutability": "nonpayable",
      "type": "function"
    },
    {
      "inputs": [
        {
          "internalType": "address",
          "name": "from",
          "type": "address"
        },
        {
          "internalType": "address",
          "name": "to",
          "type": "address"
        },
        {
          "internalType": "uint256",
          "name": "tokenId",
          "type": "uint256"
        },
        {
          "internalType": "bytes",
          "name": "_data",
          "type": "bytes"
        }
      ],
      "name": "safeTransferFrom",
      "outputs": [],
      "stateMutability": "nonpayable",
      "type": "function"
    },
    {
      "inputs": [
        {
          "internalType": "address",
          "name": "operator",
          "type": "address"
        },
        {
          "internalType": "bool",
          "name": "approved",
          "type": "bool"
        }
      ],
      "name": "setApprovalForAll",
      "outputs": [],
      "stateMutability": "nonpayable",
      "type": "function"
    },
    {
      "inputs": [
        {
          "internalType": "bytes4",
          "name": "interfaceId",
          "type": "bytes4"
        }
      ],
      "name": "supportsInterface",
      "outputs": [
        {
          "internalType": "bool",
          "name": "",
          "type": "bool"
        }
      ],
      "stateMutability": "view",
      "type": "function",
      "constant": true
    },
    {
      "inputs": [],
      "name": "symbol",
      "outputs": [
        {
          "internalType": "string",
          "name": "",
          "type": "string"
        }
      ],
      "stateMutability": "view",
      "type": "function",
      "constant": true
    },
    {
      "inputs": [
        {
          "internalType": "uint256",
          "name": "index",
          "type": "uint256"
        }
      ],
      "name": "tokenByIndex",
      "outputs": [
        {
          "internalType": "uint256",
          "name": "",
          "type": "uint256"
        }
      ],
      "stateMutability": "view",
      "type": "function",
      "constant": true
    },
    {
      "inputs": [
        {
          "internalType": "address",
          "name": "owner",
          "type": "address"
        },
        {
          "internalType": "uint256",
          "name": "index",
          "type": "uint256"
        }
      ],
      "name": "tokenOfOwnerByIndex",
      "outputs": [
        {
          "internalType": "uint256",
          "name": "",
          "type": "uint256"
        }
      ],
      "stateMutability": "view",
      "type": "function",
      "constant": true
    },
    {
      "inputs": [
        {
          "internalType": "uint256",
          "name": "tokenId",
          "type": "uint256"
        }
      ],
      "name": "tokenURI",
      "outputs": [
        {
          "internalType": "string",
          "name": "",
          "type": "string"
        }
      ],
      "stateMutability": "view",
      "type": "function",
      "constant": true
    },
    {
      "inputs": [],
      "name": "totalSupply",
      "outputs": [
        {
          "internalType": "uint256",
          "name": "",
          "type": "uint256"
        }
      ],
      "stateMutability": "view",
      "type": "function",
      "constant": true
    },
    {
      "inputs": [
        {
          "internalType": "address",
          "name": "from",
          "type": "address"
        },
        {
          "internalType": "address",
          "name": "to",
          "type": "address"
        },
        {
          "internalType": "uint256",
          "name": "tokenId",
          "type": "uint256"
        }
      ],
      "name": "transferFrom",
      "outputs": [],
      "stateMutability": "nonpayable",
      "type": "function"
    },
    {
      "inputs": [],
      "name": "unpause",
      "outputs": [],
      "stateMutability": "nonpayable",
      "type": "function"
    },
    {
      "inputs": [
        {
          "internalType": "string",
          "name": "_color",
          "type": "string"
        },
        {
          "internalType": "uint256",
          "name": "_id",
          "type": "uint256"
        }
      ],
      "name": "mint",
      "outputs": [],
      "stateMutability": "nonpayable",
      "type": "function"
    },
    {
      "inputs": [
        {
          "internalType": "address",
          "name": "to",
          "type": "address"
        }
      ],
      "name": "mint",
      "outputs": [],
      "stateMutability": "nonpayable",
      "type": "function"
    },
    {
      "inputs": [
        {
          "internalType": "string",
          "name": "_color",
          "type": "string"
        }
      ],
      "name": "ownerOfColor",
      "outputs": [
        {
          "internalType": "address",
          "name": "",
          "type": "address"
        }
      ],
      "stateMutability": "view",
      "type": "function",
      "constant": true
    }
  ],
  "bytecode": "0x60806040523480156200001157600080fd5b506040518060400160405280600581526020017f436f6c6f720000000000000000000000000000000000000000000000000000008152506040518060400160405280600381526020017f434c5200000000000000000000000000000000000000000000000000000000008152506040518060400160405280601d81526020017f68747470733a2f2f6e6674732e706c6972696f2e636f6d2f6e6674732f00000081525082828160029080519060200190620000ce92919062000463565b508060039080519060200190620000e792919062000463565b5050506000600c60006101000a81548160ff02191690831515021790555080600e90805190602001906200011d92919062000463565b50620001426000801b62000136620001cd60201b60201c565b620001d560201b60201c565b620001837f9f2df0fed2c77648de5860a4cc508cd0818c85b8b8a1ab4ceeef8d981c8956a662000177620001cd60201b60201c565b620001d560201b60201c565b620001c47f65d7a28e3265b37a6474929f336521b332c1681b933f6cb9f3376673440d862a620001b8620001cd60201b60201c565b620001d560201b60201c565b50505062000578565b600033905090565b620001ec82826200021d60201b620015891760201c565b6200021881600160008581526020019081526020016000206200023360201b620015971790919060201c565b505050565b6200022f82826200026b60201b60201c565b5050565b600062000263836000018373ffffffffffffffffffffffffffffffffffffffff1660001b6200035c60201b60201c565b905092915050565b6200027d8282620003d660201b60201c565b6200035857600160008084815260200190815260200160002060000160008373ffffffffffffffffffffffffffffffffffffffff1673ffffffffffffffffffffffffffffffffffffffff16815260200190815260200160002060006101000a81548160ff021916908315150217905550620002fd620001cd60201b60201c565b73ffffffffffffffffffffffffffffffffffffffff168173ffffffffffffffffffffffffffffffffffffffff16837f2f8788117e7eff1d82e926ec794901d17c78024a50270940304540a733656f0d60405160405180910390a45b5050565b60006200037083836200044060201b60201c565b620003cb578260000182908060018154018082558091505060019003906000526020600020016000909190919091505582600001805490508360010160008481526020019081526020016000208190555060019050620003d0565b600090505b92915050565b600080600084815260200190815260200160002060000160008373ffffffffffffffffffffffffffffffffffffffff1673ffffffffffffffffffffffffffffffffffffffff16815260200190815260200160002060009054906101000a900460ff16905092915050565b600080836001016000848152602001908152602001600020541415905092915050565b828054620004719062000513565b90600052602060002090601f016020900481019282620004955760008555620004e1565b82601f10620004b057805160ff1916838001178555620004e1565b82800160010185558215620004e1579182015b82811115620004e0578251825591602001919060010190620004c3565b5b509050620004f09190620004f4565b5090565b5b808211156200050f576000816000905550600101620004f5565b5090565b600060028204905060018216806200052c57607f821691505b6020821081141562000543576200054262000549565b5b50919050565b7f4e487b7100000000000000000000000000000000000000000000000000000000600052602260045260246000fd5b614d8380620005886000396000f3fe608060405234801561001057600080fd5b50600436106102065760003560e01c80636a6278421161011a578063a22cb465116100ad578063ca15c8731161007c578063ca15c8731461060d578063d53913931461063d578063d547741f1461065b578063e63ab1e914610677578063e985e9c51461069557610206565b8063a22cb46514610575578063b88d4fde14610591578063bd11f69d146105ad578063c87b56dd146105dd57610206565b80639010d07c116100e95780639010d07c146104d957806391d148541461050957806395d89b4114610539578063a217fddf1461055757610206565b80636a6278421461045357806370a082311461046f5780638456cb591461049f5780638c454db1146104a957610206565b80632f2ff15d1161019d57806342842e0e1161016c57806342842e0e1461039d57806342966c68146103b95780634f6ccce7146103d55780635c975abb146104055780636352211e1461042357610206565b80632f2ff15d1461032b5780632f745c591461034757806336568abe146103775780633f4ba83a1461039357610206565b8063095ea7b3116101d9578063095ea7b3146102a557806318160ddd146102c157806323b872dd146102df578063248a9ca3146102fb57610206565b806301ffc9a71461020b578063056b01ce1461023b57806306fdde0314610257578063081812fc14610275575b600080fd5b61022560048036038101906102209190613613565b6106c5565b6040516102329190613cce565b60405180910390f35b610255600480360381019061025091906136b6565b6106d7565b005b61025f6107eb565b60405161026c9190613d04565b60405180910390f35b61028f600480360381019061028a9190613712565b61087d565b60405161029c9190613c67565b60405180910390f35b6102bf60048036038101906102ba9190613526565b610902565b005b6102c9610a1a565b6040516102d69190614066565b60405180910390f35b6102f960048036038101906102f49190613410565b610a27565b005b61031560048036038101906103109190613566565b610a87565b6040516103229190613ce9565b60405180910390f35b61034560048036038101906103409190613593565b610aa6565b005b610361600480360381019061035c9190613526565b610ada565b60405161036e9190614066565b60405180910390f35b610391600480360381019061038c9190613593565b610b7f565b005b61039b610bb3565b005b6103b760048036038101906103b29190613410565b610c2d565b005b6103d360048036038101906103ce9190613712565b610c4d565b005b6103ef60048036038101906103ea9190613712565b610ca9565b6040516103fc9190614066565b60405180910390f35b61040d610d1a565b60405161041a9190613cce565b60405180910390f35b61043d60048036038101906104389190613712565b610d31565b60405161044a9190613c67565b60405180910390f35b61046d600480360381019061046891906133a3565b610de3565b005b610489600480360381019061048491906133a3565b610e73565b6040516104969190614066565b60405180910390f35b6104a7610f2b565b005b6104c360048036038101906104be919061366d565b610fa5565b6040516104d09190613c67565b60405180910390f35b6104f360048036038101906104ee91906135d3565b610fed565b6040516105009190613c67565b60405180910390f35b610523600480360381019061051e9190613593565b61101c565b6040516105309190613cce565b60405180910390f35b610541611086565b60405161054e9190613d04565b60405180910390f35b61055f611118565b60405161056c9190613ce9565b60405180910390f35b61058f600480360381019061058a91906134e6565b61111f565b005b6105ab60048036038101906105a69190613463565b6112a0565b005b6105c760048036038101906105c29190613712565b611302565b6040516105d49190613d04565b60405180910390f35b6105f760048036038101906105f29190613712565b6113ae565b6040516106049190613d04565b60405180910390f35b61062760048036038101906106229190613566565b611455565b6040516106349190614066565b60405180910390f35b610645611479565b6040516106529190613ce9565b60405180910390f35b61067560048036038101906106709190613593565b61149d565b005b61067f6114d1565b60405161068c9190613ce9565b60405180910390f35b6106af60048036038101906106aa91906133d0565b6114f5565b6040516106bc9190613cce565b60405180910390f35b60006106d0826115c7565b9050919050565b6010826040516106e79190613bf2565b908152602001604051809103902060009054906101000a900460ff161561070d57600080fd5b600f829080600181540180825580915050600190039060005260206000200160009091909190915090805190602001906107489291906131a2565b506107533382611641565b60016010836040516107659190613bf2565b908152602001604051809103902060006101000a81548160ff0219169083151502179055503360118360405161079b9190613bf2565b908152602001604051809103902060006101000a81548173ffffffffffffffffffffffffffffffffffffffff021916908373ffffffffffffffffffffffffffffffffffffffff1602179055505050565b6060600280546107fa9061434a565b80601f01602080910402602001604051908101604052809291908181526020018280546108269061434a565b80156108735780601f1061084857610100808354040283529160200191610873565b820191906000526020600020905b81548152906001019060200180831161085657829003601f168201915b5050505050905090565b60006108888261180f565b6108c7576040517f08c379a00000000000000000000000000000000000000000000000000000000081526004016108be90613f26565b60405180910390fd5b6006600083815260200190815260200160002060009054906101000a900473ffffffffffffffffffffffffffffffffffffffff169050919050565b600061090d82610d31565b90508073ffffffffffffffffffffffffffffffffffffffff168373ffffffffffffffffffffffffffffffffffffffff16141561097e576040517f08c379a000000000000000000000000000000000000000000000000000000000815260040161097590613f86565b60405180910390fd5b8073ffffffffffffffffffffffffffffffffffffffff1661099d61187b565b73ffffffffffffffffffffffffffffffffffffffff1614806109cc57506109cb816109c661187b565b6114f5565b5b610a0b576040517f08c379a0000000000000000000000000000000000000000000000000000000008152600401610a0290613ea6565b60405180910390fd5b610a158383611883565b505050565b6000600a80549050905090565b610a38610a3261187b565b8261193c565b610a77576040517f08c379a0000000000000000000000000000000000000000000000000000000008152600401610a6e90613fa6565b60405180910390fd5b610a82838383611a1a565b505050565b6000806000838152602001908152602001600020600101549050919050565b610ab08282611c76565b610ad5816001600085815260200190815260200160002061159790919063ffffffff16565b505050565b6000610ae583610e73565b8210610b26576040517f08c379a0000000000000000000000000000000000000000000000000000000008152600401610b1d90613da6565b60405180910390fd5b600860008473ffffffffffffffffffffffffffffffffffffffff1673ffffffffffffffffffffffffffffffffffffffff168152602001908152602001600020600083815260200190815260200160002054905092915050565b610b898282611c9f565b610bae8160016000858152602001908152602001600020611d2290919063ffffffff16565b505050565b610be47f65d7a28e3265b37a6474929f336521b332c1681b933f6cb9f3376673440d862a610bdf61187b565b61101c565b610c23576040517f08c379a0000000000000000000000000000000000000000000000000000000008152600401610c1a90614026565b60405180910390fd5b610c2b611d52565b565b610c48838383604051806020016040528060008152506112a0565b505050565b610c5e610c5861187b565b8261193c565b610c9d576040517f08c379a0000000000000000000000000000000000000000000000000000000008152600401610c9490614006565b60405180910390fd5b610ca681611df4565b50565b6000610cb3610a1a565b8210610cf4576040517f08c379a0000000000000000000000000000000000000000000000000000000008152600401610ceb90613fc6565b60405180910390fd5b600a8281548110610d0857610d076144e3565b5b90600052602060002001549050919050565b6000600c60009054906101000a900460ff16905090565b6000806004600084815260200190815260200160002060009054906101000a900473ffffffffffffffffffffffffffffffffffffffff169050600073ffffffffffffffffffffffffffffffffffffffff168173ffffffffffffffffffffffffffffffffffffffff161415610dda576040517f08c379a0000000000000000000000000000000000000000000000000000000008152600401610dd190613ee6565b60405180910390fd5b80915050919050565b610e147f9f2df0fed2c77648de5860a4cc508cd0818c85b8b8a1ab4ceeef8d981c8956a6610e0f61187b565b61101c565b610e53576040517f08c379a0000000000000000000000000000000000000000000000000000000008152600401610e4a90613fe6565b60405180910390fd5b610e6681610e61600d611f05565b611641565b610e70600d611f13565b50565b60008073ffffffffffffffffffffffffffffffffffffffff168273ffffffffffffffffffffffffffffffffffffffff161415610ee4576040517f08c379a0000000000000000000000000000000000000000000000000000000008152600401610edb90613ec6565b60405180910390fd5b600560008373ffffffffffffffffffffffffffffffffffffffff1673ffffffffffffffffffffffffffffffffffffffff168152602001908152602001600020549050919050565b610f5c7f65d7a28e3265b37a6474929f336521b332c1681b933f6cb9f3376673440d862a610f5761187b565b61101c565b610f9b576040517f08c379a0000000000000000000000000000000000000000000000000000000008152600401610f9290613e06565b60405180910390fd5b610fa3611f29565b565b6000601182604051610fb79190613bf2565b908152602001604051809103902060009054906101000a900473ffffffffffffffffffffffffffffffffffffffff169050919050565b60006110148260016000868152602001908152602001600020611fcc90919063ffffffff16565b905092915050565b600080600084815260200190815260200160002060000160008373ffffffffffffffffffffffffffffffffffffffff1673ffffffffffffffffffffffffffffffffffffffff16815260200190815260200160002060009054906101000a900460ff16905092915050565b6060600380546110959061434a565b80601f01602080910402602001604051908101604052809291908181526020018280546110c19061434a565b801561110e5780601f106110e35761010080835404028352916020019161110e565b820191906000526020600020905b8154815290600101906020018083116110f157829003601f168201915b5050505050905090565b6000801b81565b61112761187b565b73ffffffffffffffffffffffffffffffffffffffff168273ffffffffffffffffffffffffffffffffffffffff161415611195576040517f08c379a000000000000000000000000000000000000000000000000000000000815260040161118c90613e46565b60405180910390fd5b80600760006111a261187b565b73ffffffffffffffffffffffffffffffffffffffff1673ffffffffffffffffffffffffffffffffffffffff16815260200190815260200160002060008473ffffffffffffffffffffffffffffffffffffffff1673ffffffffffffffffffffffffffffffffffffffff16815260200190815260200160002060006101000a81548160ff0219169083151502179055508173ffffffffffffffffffffffffffffffffffffffff1661124f61187b565b73ffffffffffffffffffffffffffffffffffffffff167f17307eab39ab6107e8899845ad3d59bd9653f200f220920489ca2b5937696c31836040516112949190613cce565b60405180910390a35050565b6112b16112ab61187b565b8361193c565b6112f0576040517f08c379a00000000000000000000000000000000000000000000000000000000081526004016112e790613fa6565b60405180910390fd5b6112fc84848484611fe6565b50505050565b600f818154811061131257600080fd5b90600052602060002001600091509050805461132d9061434a565b80601f01602080910402602001604051908101604052809291908181526020018280546113599061434a565b80156113a65780601f1061137b576101008083540402835291602001916113a6565b820191906000526020600020905b81548152906001019060200180831161138957829003601f168201915b505050505081565b60606113b98261180f565b6113f8576040517f08c379a00000000000000000000000000000000000000000000000000000000081526004016113ef90613f66565b60405180910390fd5b6000611402612042565b90506000815111611422576040518060200160405280600081525061144d565b8061142c846120d4565b60405160200161143d929190613c09565b6040516020818303038152906040525b915050919050565b600061147260016000848152602001908152602001600020612235565b9050919050565b7f9f2df0fed2c77648de5860a4cc508cd0818c85b8b8a1ab4ceeef8d981c8956a681565b6114a7828261224a565b6114cc8160016000858152602001908152602001600020611d2290919063ffffffff16565b505050565b7f65d7a28e3265b37a6474929f336521b332c1681b933f6cb9f3376673440d862a81565b6000600760008473ffffffffffffffffffffffffffffffffffffffff1673ffffffffffffffffffffffffffffffffffffffff16815260200190815260200160002060008373ffffffffffffffffffffffffffffffffffffffff1673ffffffffffffffffffffffffffffffffffffffff16815260200190815260200160002060009054906101000a900460ff16905092915050565b6115938282612273565b5050565b60006115bf836000018373ffffffffffffffffffffffffffffffffffffffff1660001b612353565b905092915050565b60007f780e9d63000000000000000000000000000000000000000000000000000000007bffffffffffffffffffffffffffffffffffffffffffffffffffffffff1916827bffffffffffffffffffffffffffffffffffffffffffffffffffffffff1916148061163a5750611639826123c3565b5b9050919050565b600073ffffffffffffffffffffffffffffffffffffffff168273ffffffffffffffffffffffffffffffffffffffff1614156116b1576040517f08c379a00000000000000000000000000000000000000000000000000000000081526004016116a890613f06565b60405180910390fd5b6116ba8161180f565b156116fa576040517f08c379a00000000000000000000000000000000000000000000000000000000081526004016116f190613de6565b60405180910390fd5b611706600083836124a5565b6001600560008473ffffffffffffffffffffffffffffffffffffffff1673ffffffffffffffffffffffffffffffffffffffff1681526020019081526020016000206000828254611756919061414b565b92505081905550816004600083815260200190815260200160002060006101000a81548173ffffffffffffffffffffffffffffffffffffffff021916908373ffffffffffffffffffffffffffffffffffffffff160217905550808273ffffffffffffffffffffffffffffffffffffffff16600073ffffffffffffffffffffffffffffffffffffffff167fddf252ad1be2c89b69c2b068fc378daa952ba7f163c4a11628f55a4df523b3ef60405160405180910390a45050565b60008073ffffffffffffffffffffffffffffffffffffffff166004600084815260200190815260200160002060009054906101000a900473ffffffffffffffffffffffffffffffffffffffff1673ffffffffffffffffffffffffffffffffffffffff1614159050919050565b600033905090565b816006600083815260200190815260200160002060006101000a81548173ffffffffffffffffffffffffffffffffffffffff021916908373ffffffffffffffffffffffffffffffffffffffff160217905550808273ffffffffffffffffffffffffffffffffffffffff166118f683610d31565b73ffffffffffffffffffffffffffffffffffffffff167f8c5be1e5ebec7d5bd14f71427d1e84f3dd0314c0f7b2291e5b200ac8c7c3b92560405160405180910390a45050565b60006119478261180f565b611986576040517f08c379a000000000000000000000000000000000000000000000000000000000815260040161197d90613e66565b60405180910390fd5b600061199183610d31565b90508073ffffffffffffffffffffffffffffffffffffffff168473ffffffffffffffffffffffffffffffffffffffff161480611a0057508373ffffffffffffffffffffffffffffffffffffffff166119e88461087d565b73ffffffffffffffffffffffffffffffffffffffff16145b80611a115750611a1081856114f5565b5b91505092915050565b8273ffffffffffffffffffffffffffffffffffffffff16611a3a82610d31565b73ffffffffffffffffffffffffffffffffffffffff1614611a90576040517f08c379a0000000000000000000000000000000000000000000000000000000008152600401611a8790613f46565b60405180910390fd5b600073ffffffffffffffffffffffffffffffffffffffff168273ffffffffffffffffffffffffffffffffffffffff161415611b00576040517f08c379a0000000000000000000000000000000000000000000000000000000008152600401611af790613e26565b60405180910390fd5b611b0b8383836124a5565b611b16600082611883565b6001600560008573ffffffffffffffffffffffffffffffffffffffff1673ffffffffffffffffffffffffffffffffffffffff1681526020019081526020016000206000828254611b66919061422c565b925050819055506001600560008473ffffffffffffffffffffffffffffffffffffffff1673ffffffffffffffffffffffffffffffffffffffff1681526020019081526020016000206000828254611bbd919061414b565b92505081905550816004600083815260200190815260200160002060006101000a81548173ffffffffffffffffffffffffffffffffffffffff021916908373ffffffffffffffffffffffffffffffffffffffff160217905550808273ffffffffffffffffffffffffffffffffffffffff168473ffffffffffffffffffffffffffffffffffffffff167fddf252ad1be2c89b69c2b068fc378daa952ba7f163c4a11628f55a4df523b3ef60405160405180910390a4505050565b611c7f82610a87565b611c9081611c8b61187b565b6124b5565b611c9a8383612273565b505050565b611ca761187b565b73ffffffffffffffffffffffffffffffffffffffff168173ffffffffffffffffffffffffffffffffffffffff1614611d14576040517f08c379a0000000000000000000000000000000000000000000000000000000008152600401611d0b90614046565b60405180910390fd5b611d1e8282612552565b5050565b6000611d4a836000018373ffffffffffffffffffffffffffffffffffffffff1660001b612633565b905092915050565b611d5a610d1a565b611d99576040517f08c379a0000000000000000000000000000000000000000000000000000000008152600401611d9090613d86565b60405180910390fd5b6000600c60006101000a81548160ff0219169083151502179055507f5db9ee0a495bf2e6ff9c91a7834c1ba4fdd244a5e8aa4e537bd38aeae4b073aa611ddd61187b565b604051611dea9190613c67565b60405180910390a1565b6000611dff82610d31565b9050611e0d816000846124a5565b611e18600083611883565b6001600560008373ffffffffffffffffffffffffffffffffffffffff1673ffffffffffffffffffffffffffffffffffffffff1681526020019081526020016000206000828254611e68919061422c565b925050819055506004600083815260200190815260200160002060006101000a81549073ffffffffffffffffffffffffffffffffffffffff021916905581600073ffffffffffffffffffffffffffffffffffffffff168273ffffffffffffffffffffffffffffffffffffffff167fddf252ad1be2c89b69c2b068fc378daa952ba7f163c4a11628f55a4df523b3ef60405160405180910390a45050565b600081600001549050919050565b6001816000016000828254019250508190555050565b611f31610d1a565b15611f71576040517f08c379a0000000000000000000000000000000000000000000000000000000008152600401611f6890613e86565b60405180910390fd5b6001600c60006101000a81548160ff0219169083151502179055507f62e78cea01bee320cd4e420270b5ea74000d11b0c9f74754ebdbfc544b05a258611fb561187b565b604051611fc29190613c67565b60405180910390a1565b6000611fdb836000018361273f565b60001c905092915050565b611ff1848484611a1a565b611ffd848484846127b3565b61203c576040517f08c379a000000000000000000000000000000000000000000000000000000000815260040161203390613dc6565b60405180910390fd5b50505050565b6060600e80546120519061434a565b80601f016020809104026020016040519081016040528092919081815260200182805461207d9061434a565b80156120ca5780601f1061209f576101008083540402835291602001916120ca565b820191906000526020600020905b8154815290600101906020018083116120ad57829003601f168201915b5050505050905090565b6060600082141561211c576040518060400160405280600181526020017f30000000000000000000000000000000000000000000000000000000000000008152509050612230565b600082905060005b6000821461214e578080612137906143ad565b915050600a8261214791906141a1565b9150612124565b60008167ffffffffffffffff81111561216a57612169614512565b5b6040519080825280601f01601f19166020018201604052801561219c5781602001600182028036833780820191505090505b5090505b60008514612229576001826121b5919061422c565b9150600a856121c491906143f6565b60306121d0919061414b565b60f81b8183815181106121e6576121e56144e3565b5b60200101907effffffffffffffffffffffffffffffffffffffffffffffffffffffffffffff1916908160001a905350600a8561222291906141a1565b94506121a0565b8093505050505b919050565b60006122438260000161294a565b9050919050565b61225382610a87565b6122648161225f61187b565b6124b5565b61226e8383612552565b505050565b61227d828261101c565b61234f57600160008084815260200190815260200160002060000160008373ffffffffffffffffffffffffffffffffffffffff1673ffffffffffffffffffffffffffffffffffffffff16815260200190815260200160002060006101000a81548160ff0219169083151502179055506122f461187b565b73ffffffffffffffffffffffffffffffffffffffff168173ffffffffffffffffffffffffffffffffffffffff16837f2f8788117e7eff1d82e926ec794901d17c78024a50270940304540a733656f0d60405160405180910390a45b5050565b600061235f838361295b565b6123b85782600001829080600181540180825580915050600190039060005260206000200160009091909190915055826000018054905083600101600084815260200190815260200160002081905550600190506123bd565b600090505b92915050565b60007f80ac58cd000000000000000000000000000000000000000000000000000000007bffffffffffffffffffffffffffffffffffffffffffffffffffffffff1916827bffffffffffffffffffffffffffffffffffffffffffffffffffffffff1916148061248e57507f5b5e139f000000000000000000000000000000000000000000000000000000007bffffffffffffffffffffffffffffffffffffffffffffffffffffffff1916827bffffffffffffffffffffffffffffffffffffffffffffffffffffffff1916145b8061249e575061249d8261297e565b5b9050919050565b6124b08383836129f8565b505050565b6124bf828261101c565b61254e576124e48173ffffffffffffffffffffffffffffffffffffffff166014612a50565b6124f28360001c6020612a50565b604051602001612503929190613c2d565b6040516020818303038152906040526040517f08c379a00000000000000000000000000000000000000000000000000000000081526004016125459190613d04565b60405180910390fd5b5050565b61255c828261101c565b1561262f57600080600084815260200190815260200160002060000160008373ffffffffffffffffffffffffffffffffffffffff1673ffffffffffffffffffffffffffffffffffffffff16815260200190815260200160002060006101000a81548160ff0219169083151502179055506125d461187b565b73ffffffffffffffffffffffffffffffffffffffff168173ffffffffffffffffffffffffffffffffffffffff16837ff6391f5c32d9c69d2a47ea670b442974b53935d1edc7fd64eb21e047a839171b60405160405180910390a45b5050565b60008083600101600084815260200190815260200160002054905060008114612733576000600182612665919061422c565b905060006001866000018054905061267d919061422c565b90506000866000018281548110612697576126966144e3565b5b90600052602060002001549050808760000184815481106126bb576126ba6144e3565b5b90600052602060002001819055508387600101600083815260200190815260200160002081905550866000018054806126f7576126f66144b4565b5b60019003818190600052602060002001600090559055866001016000878152602001908152602001600020600090556001945050505050612739565b60009150505b92915050565b60008183600001805490501161278a576040517f08c379a000000000000000000000000000000000000000000000000000000000815260040161278190613d26565b60405180910390fd5b8260000182815481106127a05761279f6144e3565b5b9060005260206000200154905092915050565b60006127d48473ffffffffffffffffffffffffffffffffffffffff16612c8c565b1561293d578373ffffffffffffffffffffffffffffffffffffffff1663150b7a026127fd61187b565b8786866040518563ffffffff1660e01b815260040161281f9493929190613c82565b602060405180830381600087803b15801561283957600080fd5b505af192505050801561286a57506040513d601f19601f820116820180604052508101906128679190613640565b60015b6128ed573d806000811461289a576040519150601f19603f3d011682016040523d82523d6000602084013e61289f565b606091505b506000815114156128e5576040517f08c379a00000000000000000000000000000000000000000000000000000000081526004016128dc90613dc6565b60405180910390fd5b805181602001fd5b63150b7a0260e01b7bffffffffffffffffffffffffffffffffffffffffffffffffffffffff1916817bffffffffffffffffffffffffffffffffffffffffffffffffffffffff191614915050612942565b600190505b949350505050565b600081600001805490509050919050565b600080836001016000848152602001908152602001600020541415905092915050565b60007f5a05180f000000000000000000000000000000000000000000000000000000007bffffffffffffffffffffffffffffffffffffffffffffffffffffffff1916827bffffffffffffffffffffffffffffffffffffffffffffffffffffffff191614806129f157506129f082612c9f565b5b9050919050565b612a03838383612d19565b612a0b610d1a565b15612a4b576040517f08c379a0000000000000000000000000000000000000000000000000000000008152600401612a4290613d66565b60405180910390fd5b505050565b606060006002836002612a6391906141d2565b612a6d919061414b565b67ffffffffffffffff811115612a8657612a85614512565b5b6040519080825280601f01601f191660200182016040528015612ab85781602001600182028036833780820191505090505b5090507f300000000000000000000000000000000000000000000000000000000000000081600081518110612af057612aef6144e3565b5b60200101907effffffffffffffffffffffffffffffffffffffffffffffffffffffffffffff1916908160001a9053507f780000000000000000000000000000000000000000000000000000000000000081600181518110612b5457612b536144e3565b5b60200101907effffffffffffffffffffffffffffffffffffffffffffffffffffffffffffff1916908160001a90535060006001846002612b9491906141d2565b612b9e919061414b565b90505b6001811115612c3e577f3031323334353637383961626364656600000000000000000000000000000000600f861660108110612be057612bdf6144e3565b5b1a60f81b828281518110612bf757612bf66144e3565b5b60200101907effffffffffffffffffffffffffffffffffffffffffffffffffffffffffffff1916908160001a905350600485901c945080612c3790614320565b9050612ba1565b5060008414612c82576040517f08c379a0000000000000000000000000000000000000000000000000000000008152600401612c7990613d46565b60405180910390fd5b8091505092915050565b600080823b905060008111915050919050565b60007f7965db0b000000000000000000000000000000000000000000000000000000007bffffffffffffffffffffffffffffffffffffffffffffffffffffffff1916827bffffffffffffffffffffffffffffffffffffffffffffffffffffffff19161480612d125750612d1182612e2d565b5b9050919050565b612d24838383612e97565b600073ffffffffffffffffffffffffffffffffffffffff168373ffffffffffffffffffffffffffffffffffffffff161415612d6757612d6281612e9c565b612da6565b8173ffffffffffffffffffffffffffffffffffffffff168373ffffffffffffffffffffffffffffffffffffffff1614612da557612da48382612ee5565b5b5b600073ffffffffffffffffffffffffffffffffffffffff168273ffffffffffffffffffffffffffffffffffffffff161415612de957612de481613052565b612e28565b8273ffffffffffffffffffffffffffffffffffffffff168273ffffffffffffffffffffffffffffffffffffffff1614612e2757612e268282613123565b5b5b505050565b60007f01ffc9a7000000000000000000000000000000000000000000000000000000007bffffffffffffffffffffffffffffffffffffffffffffffffffffffff1916827bffffffffffffffffffffffffffffffffffffffffffffffffffffffff1916149050919050565b505050565b600a80549050600b600083815260200190815260200160002081905550600a81908060018154018082558091505060019003906000526020600020016000909190919091505550565b60006001612ef284610e73565b612efc919061422c565b9050600060096000848152602001908152602001600020549050818114612fe1576000600860008673ffffffffffffffffffffffffffffffffffffffff1673ffffffffffffffffffffffffffffffffffffffff168152602001908152602001600020600084815260200190815260200160002054905080600860008773ffffffffffffffffffffffffffffffffffffffff1673ffffffffffffffffffffffffffffffffffffffff168152602001908152602001600020600084815260200190815260200160002081905550816009600083815260200190815260200160002081905550505b6009600084815260200190815260200160002060009055600860008573ffffffffffffffffffffffffffffffffffffffff1673ffffffffffffffffffffffffffffffffffffffff16815260200190815260200160002060008381526020019081526020016000206000905550505050565b60006001600a80549050613066919061422c565b90506000600b60008481526020019081526020016000205490506000600a8381548110613096576130956144e3565b5b9060005260206000200154905080600a83815481106130b8576130b76144e3565b5b906000526020600020018190555081600b600083815260200190815260200160002081905550600b600085815260200190815260200160002060009055600a805480613107576131066144b4565b5b6001900381819060005260206000200160009055905550505050565b600061312e83610e73565b905081600860008573ffffffffffffffffffffffffffffffffffffffff1673ffffffffffffffffffffffffffffffffffffffff168152602001908152602001600020600083815260200190815260200160002081905550806009600084815260200190815260200160002081905550505050565b8280546131ae9061434a565b90600052602060002090601f0160209004810192826131d05760008555613217565b82601f106131e957805160ff1916838001178555613217565b82800160010185558215613217579182015b828111156132165782518255916020019190600101906131fb565b5b5090506132249190613228565b5090565b5b80821115613241576000816000905550600101613229565b5090565b6000613258613253846140a6565b614081565b90508281526020810184848401111561327457613273614546565b5b61327f8482856142de565b509392505050565b600061329a613295846140d7565b614081565b9050828152602081018484840111156132b6576132b5614546565b5b6132c18482856142de565b509392505050565b6000813590506132d881614cda565b92915050565b6000813590506132ed81614cf1565b92915050565b60008135905061330281614d08565b92915050565b60008135905061331781614d1f565b92915050565b60008151905061332c81614d1f565b92915050565b600082601f83011261334757613346614541565b5b8135613357848260208601613245565b91505092915050565b600082601f83011261337557613374614541565b5b8135613385848260208601613287565b91505092915050565b60008135905061339d81614d36565b92915050565b6000602082840312156133b9576133b8614550565b5b60006133c7848285016132c9565b91505092915050565b600080604083850312156133e7576133e6614550565b5b60006133f5858286016132c9565b9250506020613406858286016132c9565b9150509250929050565b60008060006060848603121561342957613428614550565b5b6000613437868287016132c9565b9350506020613448868287016132c9565b92505060406134598682870161338e565b9150509250925092565b6000806000806080858703121561347d5761347c614550565b5b600061348b878288016132c9565b945050602061349c878288016132c9565b93505060406134ad8782880161338e565b925050606085013567ffffffffffffffff8111156134ce576134cd61454b565b5b6134da87828801613332565b91505092959194509250565b600080604083850312156134fd576134fc614550565b5b600061350b858286016132c9565b925050602061351c858286016132de565b9150509250929050565b6000806040838503121561353d5761353c614550565b5b600061354b858286016132c9565b925050602061355c8582860161338e565b9150509250929050565b60006020828403121561357c5761357b614550565b5b600061358a848285016132f3565b91505092915050565b600080604083850312156135aa576135a9614550565b5b60006135b8858286016132f3565b92505060206135c9858286016132c9565b9150509250929050565b600080604083850312156135ea576135e9614550565b5b60006135f8858286016132f3565b92505060206136098582860161338e565b9150509250929050565b60006020828403121561362957613628614550565b5b600061363784828501613308565b91505092915050565b60006020828403121561365657613655614550565b5b60006136648482850161331d565b91505092915050565b60006020828403121561368357613682614550565b5b600082013567ffffffffffffffff8111156136a1576136a061454b565b5b6136ad84828501613360565b91505092915050565b600080604083850312156136cd576136cc614550565b5b600083013567ffffffffffffffff8111156136eb576136ea61454b565b5b6136f785828601613360565b92505060206137088582860161338e565b9150509250929050565b60006020828403121561372857613727614550565b5b60006137368482850161338e565b91505092915050565b61374881614260565b82525050565b61375781614272565b82525050565b6137668161427e565b82525050565b600061377782614108565b613781818561411e565b93506137918185602086016142ed565b61379a81614555565b840191505092915050565b60006137b082614113565b6137ba818561412f565b93506137ca8185602086016142ed565b6137d381614555565b840191505092915050565b60006137e982614113565b6137f38185614140565b93506138038185602086016142ed565b80840191505092915050565b600061381c60228361412f565b915061382782614566565b604082019050919050565b600061383f60208361412f565b915061384a826145b5565b602082019050919050565b6000613862602b8361412f565b915061386d826145de565b604082019050919050565b600061388560148361412f565b91506138908261462d565b602082019050919050565b60006138a8602b8361412f565b91506138b382614656565b604082019050919050565b60006138cb60328361412f565b91506138d6826146a5565b604082019050919050565b60006138ee601c8361412f565b91506138f9826146f4565b602082019050919050565b6000613911603e8361412f565b915061391c8261471d565b604082019050919050565b600061393460248361412f565b915061393f8261476c565b604082019050919050565b600061395760198361412f565b9150613962826147bb565b602082019050919050565b600061397a602c8361412f565b9150613985826147e4565b604082019050919050565b600061399d60108361412f565b91506139a882614833565b602082019050919050565b60006139c060388361412f565b91506139cb8261485c565b604082019050919050565b60006139e3602a8361412f565b91506139ee826148ab565b604082019050919050565b6000613a0660298361412f565b9150613a11826148fa565b604082019050919050565b6000613a2960208361412f565b9150613a3482614949565b602082019050919050565b6000613a4c602c8361412f565b9150613a5782614972565b604082019050919050565b6000613a6f60298361412f565b9150613a7a826149c1565b604082019050919050565b6000613a92602f8361412f565b9150613a9d82614a10565b604082019050919050565b6000613ab560218361412f565b9150613ac082614a5f565b604082019050919050565b6000613ad860318361412f565b9150613ae382614aae565b604082019050919050565b6000613afb602c8361412f565b9150613b0682614afd565b604082019050919050565b6000613b1e601783614140565b9150613b2982614b4c565b601782019050919050565b6000613b41603d8361412f565b9150613b4c82614b75565b604082019050919050565b6000613b6460308361412f565b9150613b6f82614bc4565b604082019050919050565b6000613b8760408361412f565b9150613b9282614c13565b604082019050919050565b6000613baa601183614140565b9150613bb582614c62565b601182019050919050565b6000613bcd602f8361412f565b9150613bd882614c8b565b604082019050919050565b613bec816142d4565b82525050565b6000613bfe82846137de565b915081905092915050565b6000613c1582856137de565b9150613c2182846137de565b91508190509392505050565b6000613c3882613b11565b9150613c4482856137de565b9150613c4f82613b9d565b9150613c5b82846137de565b91508190509392505050565b6000602082019050613c7c600083018461373f565b92915050565b6000608082019050613c97600083018761373f565b613ca4602083018661373f565b613cb16040830185613be3565b8181036060830152613cc3818461376c565b905095945050505050565b6000602082019050613ce3600083018461374e565b92915050565b6000602082019050613cfe600083018461375d565b92915050565b60006020820190508181036000830152613d1e81846137a5565b905092915050565b60006020820190508181036000830152613d3f8161380f565b9050919050565b60006020820190508181036000830152613d5f81613832565b9050919050565b60006020820190508181036000830152613d7f81613855565b9050919050565b60006020820190508181036000830152613d9f81613878565b9050919050565b60006020820190508181036000830152613dbf8161389b565b9050919050565b60006020820190508181036000830152613ddf816138be565b9050919050565b60006020820190508181036000830152613dff816138e1565b9050919050565b60006020820190508181036000830152613e1f81613904565b9050919050565b60006020820190508181036000830152613e3f81613927565b9050919050565b60006020820190508181036000830152613e5f8161394a565b9050919050565b60006020820190508181036000830152613e7f8161396d565b9050919050565b60006020820190508181036000830152613e9f81613990565b9050919050565b60006020820190508181036000830152613ebf816139b3565b9050919050565b60006020820190508181036000830152613edf816139d6565b9050919050565b60006020820190508181036000830152613eff816139f9565b9050919050565b60006020820190508181036000830152613f1f81613a1c565b9050919050565b60006020820190508181036000830152613f3f81613a3f565b9050919050565b60006020820190508181036000830152613f5f81613a62565b9050919050565b60006020820190508181036000830152613f7f81613a85565b9050919050565b60006020820190508181036000830152613f9f81613aa8565b9050919050565b60006020820190508181036000830152613fbf81613acb565b9050919050565b60006020820190508181036000830152613fdf81613aee565b9050919050565b60006020820190508181036000830152613fff81613b34565b9050919050565b6000602082019050818103600083015261401f81613b57565b9050919050565b6000602082019050818103600083015261403f81613b7a565b9050919050565b6000602082019050818103600083015261405f81613bc0565b9050919050565b600060208201905061407b6000830184613be3565b92915050565b600061408b61409c565b9050614097828261437c565b919050565b6000604051905090565b600067ffffffffffffffff8211156140c1576140c0614512565b5b6140ca82614555565b9050602081019050919050565b600067ffffffffffffffff8211156140f2576140f1614512565b5b6140fb82614555565b9050602081019050919050565b600081519050919050565b600081519050919050565b600082825260208201905092915050565b600082825260208201905092915050565b600081905092915050565b6000614156826142d4565b9150614161836142d4565b9250827fffffffffffffffffffffffffffffffffffffffffffffffffffffffffffffffff0382111561419657614195614427565b5b828201905092915050565b60006141ac826142d4565b91506141b7836142d4565b9250826141c7576141c6614456565b5b828204905092915050565b60006141dd826142d4565b91506141e8836142d4565b9250817fffffffffffffffffffffffffffffffffffffffffffffffffffffffffffffffff048311821515161561422157614220614427565b5b828202905092915050565b6000614237826142d4565b9150614242836142d4565b92508282101561425557614254614427565b5b828203905092915050565b600061426b826142b4565b9050919050565b60008115159050919050565b6000819050919050565b60007fffffffff0000000000000000000000000000000000000000000000000000000082169050919050565b600073ffffffffffffffffffffffffffffffffffffffff82169050919050565b6000819050919050565b82818337600083830152505050565b60005b8381101561430b5780820151818401526020810190506142f0565b8381111561431a576000848401525b50505050565b600061432b826142d4565b9150600082141561433f5761433e614427565b5b600182039050919050565b6000600282049050600182168061436257607f821691505b6020821081141561437657614375614485565b5b50919050565b61438582614555565b810181811067ffffffffffffffff821117156143a4576143a3614512565b5b80604052505050565b60006143b8826142d4565b91507fffffffffffffffffffffffffffffffffffffffffffffffffffffffffffffffff8214156143eb576143ea614427565b5b600182019050919050565b6000614401826142d4565b915061440c836142d4565b92508261441c5761441b614456565b5b828206905092915050565b7f4e487b7100000000000000000000000000000000000000000000000000000000600052601160045260246000fd5b7f4e487b7100000000000000000000000000000000000000000000000000000000600052601260045260246000fd5b7f4e487b7100000000000000000000000000000000000000000000000000000000600052602260045260246000fd5b7f4e487b7100000000000000000000000000000000000000000000000000000000600052603160045260246000fd5b7f4e487b7100000000000000000000000000000000000000000000000000000000600052603260045260246000fd5b7f4e487b7100000000000000000000000000000000000000000000000000000000600052604160045260246000fd5b600080fd5b600080fd5b600080fd5b600080fd5b6000601f19601f8301169050919050565b7f456e756d657261626c655365743a20696e646578206f7574206f6620626f756e60008201527f6473000000000000000000000000000000000000000000000000000000000000602082015250565b7f537472696e67733a20686578206c656e67746820696e73756666696369656e74600082015250565b7f4552433732315061757361626c653a20746f6b656e207472616e73666572207760008201527f68696c6520706175736564000000000000000000000000000000000000000000602082015250565b7f5061757361626c653a206e6f7420706175736564000000000000000000000000600082015250565b7f455243373231456e756d657261626c653a206f776e657220696e646578206f7560008201527f74206f6620626f756e6473000000000000000000000000000000000000000000602082015250565b7f4552433732313a207472616e7366657220746f206e6f6e20455243373231526560008201527f63656976657220696d706c656d656e7465720000000000000000000000000000602082015250565b7f4552433732313a20746f6b656e20616c7265616479206d696e74656400000000600082015250565b7f4552433732315072657365744d696e7465725061757365724175746f49643a2060008201527f6d75737420686176652070617573657220726f6c6520746f2070617573650000602082015250565b7f4552433732313a207472616e7366657220746f20746865207a65726f2061646460008201527f7265737300000000000000000000000000000000000000000000000000000000602082015250565b7f4552433732313a20617070726f766520746f2063616c6c657200000000000000600082015250565b7f4552433732313a206f70657261746f7220717565727920666f72206e6f6e657860008201527f697374656e7420746f6b656e0000000000000000000000000000000000000000602082015250565b7f5061757361626c653a2070617573656400000000000000000000000000000000600082015250565b7f4552433732313a20617070726f76652063616c6c6572206973206e6f74206f7760008201527f6e6572206e6f7220617070726f76656420666f7220616c6c0000000000000000602082015250565b7f4552433732313a2062616c616e636520717565727920666f7220746865207a6560008201527f726f206164647265737300000000000000000000000000000000000000000000602082015250565b7f4552433732313a206f776e657220717565727920666f72206e6f6e657869737460008201527f656e7420746f6b656e0000000000000000000000000000000000000000000000602082015250565b7f4552433732313a206d696e7420746f20746865207a65726f2061646472657373600082015250565b7f4552433732313a20617070726f76656420717565727920666f72206e6f6e657860008201527f697374656e7420746f6b656e0000000000000000000000000000000000000000602082015250565b7f4552433732313a207472616e73666572206f6620746f6b656e2074686174206960008201527f73206e6f74206f776e0000000000000000000000000000000000000000000000602082015250565b7f4552433732314d657461646174613a2055524920717565727920666f72206e6f60008201527f6e6578697374656e7420746f6b656e0000000000000000000000000000000000602082015250565b7f4552433732313a20617070726f76616c20746f2063757272656e74206f776e6560008201527f7200000000000000000000000000000000000000000000000000000000000000602082015250565b7f4552433732313a207472616e736665722063616c6c6572206973206e6f74206f60008201527f776e6572206e6f7220617070726f766564000000000000000000000000000000602082015250565b7f455243373231456e756d657261626c653a20676c6f62616c20696e646578206f60008201527f7574206f6620626f756e64730000000000000000000000000000000000000000602082015250565b7f416363657373436f6e74726f6c3a206163636f756e7420000000000000000000600082015250565b7f4552433732315072657365744d696e7465725061757365724175746f49643a2060008201527f6d7573742068617665206d696e74657220726f6c6520746f206d696e74000000602082015250565b7f4552433732314275726e61626c653a2063616c6c6572206973206e6f74206f7760008201527f6e6572206e6f7220617070726f76656400000000000000000000000000000000602082015250565b7f4552433732315072657365744d696e7465725061757365724175746f49643a2060008201527f6d75737420686176652070617573657220726f6c6520746f20756e7061757365602082015250565b7f206973206d697373696e6720726f6c6520000000000000000000000000000000600082015250565b7f416363657373436f6e74726f6c3a2063616e206f6e6c792072656e6f756e636560008201527f20726f6c657320666f722073656c660000000000000000000000000000000000602082015250565b614ce381614260565b8114614cee57600080fd5b50565b614cfa81614272565b8114614d0557600080fd5b50565b614d118161427e565b8114614d1c57600080fd5b50565b614d2881614288565b8114614d3357600080fd5b50565b614d3f816142d4565b8114614d4a57600080fd5b5056fea264697066735822122014942bb085af9e67c6424c21fa57d62fa0b0d273d46ba028ff31a98f451a22e064736f6c63430008060033",
  "immutableReferences": {},
  "source": "// SPDX-License-Identifier: MIT\npragma solidity >=0.4.22 <0.9.0;\n// pragma solidity ^0.4.26;\n\n// import \"@openzeppelin/contracts/token/ERC721/ERC721.sol\";\n\nimport \"@openzeppelin/contracts/token/ERC721/presets/ERC721PresetMinterPauserAutoId.sol\";\n\n// contract Color is ERC721 {\ncontract Color is ERC721PresetMinterPauserAutoId {\n    string[] public colors;\n    mapping(string => bool) _colorExists;\n    mapping(string => address) _ownerOfColor;\n\n    // constructor() ERC721(\"Color\", \"CLR\") {\n    constructor()\n        ERC721PresetMinterPauserAutoId(\n            \"Color\",\n            \"CLR\",\n            \"https://nfts.plirio.com/nfts/\"\n        )\n    {}\n\n    function mint(string memory _color, uint256 _id) public {\n        //Require unique color\n        require(!_colorExists[_color]);\n\n        //Add color to the NFTs amd generate the id\n        colors.push(_color);\n\n        //Mint the NFT\n        _mint(msg.sender, _id);\n\n        //Track the color\n        _colorExists[_color] = true;\n        _ownerOfColor[_color] = msg.sender;\n    }\n\n    //This should be substituted by the IERC721Enumerable https://docs.openzeppelin.com/contracts/4.x/api/token/erc721#ERC721Enumerable\n    // function totalSupply() public view virtual returns (uint256) {\n    //     return colors.length;\n    // }\n\n    function ownerOfColor(string memory _color) public view returns (address) {\n        return _ownerOfColor[_color];\n    }\n}\n",
  "sourcePath": "/media/aquarius/AC8282448282134E2/Work/NFTs/nft-gallery/ethereum/contracts/Color.sol",
  "compiler": {
    "name": "solc",
    "version": "0.8.6+commit.11564f7e.Emscripten.clang"
  },
  "schemaVersion": "3.4.1",
  "updatedAt": "2021-07-06T07:53:40.596Z",
  "networkType": "quorum",
  "devdoc": {
    "kind": "dev",
    "methods": {
      "approve(address,uint256)": {
        "details": "See {IERC721-approve}."
      },
      "balanceOf(address)": {
        "details": "See {IERC721-balanceOf}."
      },
      "burn(uint256)": {
        "details": "Burns `tokenId`. See {ERC721-_burn}. Requirements: - The caller must own `tokenId` or be an approved operator."
      },
      "getApproved(uint256)": {
        "details": "See {IERC721-getApproved}."
      },
      "getRoleAdmin(bytes32)": {
        "details": "Returns the admin role that controls `role`. See {grantRole} and {revokeRole}. To change a role's admin, use {_setRoleAdmin}."
      },
      "getRoleMember(bytes32,uint256)": {
        "details": "Returns one of the accounts that have `role`. `index` must be a value between 0 and {getRoleMemberCount}, non-inclusive. Role bearers are not sorted in any particular way, and their ordering may change at any point. WARNING: When using {getRoleMember} and {getRoleMemberCount}, make sure you perform all queries on the same block. See the following https://forum.openzeppelin.com/t/iterating-over-elements-on-enumerableset-in-openzeppelin-contracts/2296[forum post] for more information."
      },
      "getRoleMemberCount(bytes32)": {
        "details": "Returns the number of accounts that have `role`. Can be used together with {getRoleMember} to enumerate all bearers of a role."
      },
      "grantRole(bytes32,address)": {
        "details": "Overload {grantRole} to track enumerable memberships"
      },
      "hasRole(bytes32,address)": {
        "details": "Returns `true` if `account` has been granted `role`."
      },
      "isApprovedForAll(address,address)": {
        "details": "See {IERC721-isApprovedForAll}."
      },
      "mint(address)": {
        "details": "Creates a new token for `to`. Its token ID will be automatically assigned (and available on the emitted {IERC721-Transfer} event), and the token URI autogenerated based on the base URI passed at construction. See {ERC721-_mint}. Requirements: - the caller must have the `MINTER_ROLE`."
      },
      "name()": {
        "details": "See {IERC721Metadata-name}."
      },
      "ownerOf(uint256)": {
        "details": "See {IERC721-ownerOf}."
      },
      "pause()": {
        "details": "Pauses all token transfers. See {ERC721Pausable} and {Pausable-_pause}. Requirements: - the caller must have the `PAUSER_ROLE`."
      },
      "paused()": {
        "details": "Returns true if the contract is paused, and false otherwise."
      },
      "renounceRole(bytes32,address)": {
        "details": "Overload {renounceRole} to track enumerable memberships"
      },
      "revokeRole(bytes32,address)": {
        "details": "Overload {revokeRole} to track enumerable memberships"
      },
      "safeTransferFrom(address,address,uint256)": {
        "details": "See {IERC721-safeTransferFrom}."
      },
      "safeTransferFrom(address,address,uint256,bytes)": {
        "details": "See {IERC721-safeTransferFrom}."
      },
      "setApprovalForAll(address,bool)": {
        "details": "See {IERC721-setApprovalForAll}."
      },
      "supportsInterface(bytes4)": {
        "details": "See {IERC165-supportsInterface}."
      },
      "symbol()": {
        "details": "See {IERC721Metadata-symbol}."
      },
      "tokenByIndex(uint256)": {
        "details": "See {IERC721Enumerable-tokenByIndex}."
      },
      "tokenOfOwnerByIndex(address,uint256)": {
        "details": "See {IERC721Enumerable-tokenOfOwnerByIndex}."
      },
      "tokenURI(uint256)": {
        "details": "See {IERC721Metadata-tokenURI}."
      },
      "totalSupply()": {
        "details": "See {IERC721Enumerable-totalSupply}."
      },
      "transferFrom(address,address,uint256)": {
        "details": "See {IERC721-transferFrom}."
      },
      "unpause()": {
        "details": "Unpauses all token transfers. See {ERC721Pausable} and {Pausable-_unpause}. Requirements: - the caller must have the `PAUSER_ROLE`."
      }
    },
    "version": 1
  },
  "userdoc": {
    "kind": "user",
    "methods": {},
    "version": 1
  }
}