{
  "contractName": "ERC721PresetMinterPauserAutoId",
  "abi": [
    {
      "inputs": [
        {
          "internalType": "string",
          "name": "name",
          "type": "string"
        },
        {
          "internalType": "string",
          "name": "symbol",
          "type": "string"
        },
        {
          "internalType": "string",
          "name": "baseTokenURI",
          "type": "string"
        }
      ],
      "stateMutability": "nonpayable",
      "type": "constructor"
    },
    {
      "anonymous": false,
      "inputs": [
        {
          "indexed": true,
          "internalType": "address",
          "name": "owner",
          "type": "address"
        },
        {
          "indexed": true,
          "internalType": "address",
          "name": "approved",
          "type": "address"
        },
        {
          "indexed": true,
          "internalType": "uint256",
          "name": "tokenId",
          "type": "uint256"
        }
      ],
      "name": "Approval",
      "type": "event"
    },
    {
      "anonymous": false,
      "inputs": [
        {
          "indexed": true,
          "internalType": "address",
          "name": "owner",
          "type": "address"
        },
        {
          "indexed": true,
          "internalType": "address",
          "name": "operator",
          "type": "address"
        },
        {
          "indexed": false,
          "internalType": "bool",
          "name": "approved",
          "type": "bool"
        }
      ],
      "name": "ApprovalForAll",
      "type": "event"
    },
    {
      "anonymous": false,
      "inputs": [
        {
          "indexed": false,
          "internalType": "address",
          "name": "account",
          "type": "address"
        }
      ],
      "name": "Paused",
      "type": "event"
    },
    {
      "anonymous": false,
      "inputs": [
        {
          "indexed": true,
          "internalType": "bytes32",
          "name": "role",
          "type": "bytes32"
        },
        {
          "indexed": true,
          "internalType": "bytes32",
          "name": "previousAdminRole",
          "type": "bytes32"
        },
        {
          "indexed": true,
          "internalType": "bytes32",
          "name": "newAdminRole",
          "type": "bytes32"
        }
      ],
      "name": "RoleAdminChanged",
      "type": "event"
    },
    {
      "anonymous": false,
      "inputs": [
        {
          "indexed": true,
          "internalType": "bytes32",
          "name": "role",
          "type": "bytes32"
        },
        {
          "indexed": true,
          "internalType": "address",
          "name": "account",
          "type": "address"
        },
        {
          "indexed": true,
          "internalType": "address",
          "name": "sender",
          "type": "address"
        }
      ],
      "name": "RoleGranted",
      "type": "event"
    },
    {
      "anonymous": false,
      "inputs": [
        {
          "indexed": true,
          "internalType": "bytes32",
          "name": "role",
          "type": "bytes32"
        },
        {
          "indexed": true,
          "internalType": "address",
          "name": "account",
          "type": "address"
        },
        {
          "indexed": true,
          "internalType": "address",
          "name": "sender",
          "type": "address"
        }
      ],
      "name": "RoleRevoked",
      "type": "event"
    },
    {
      "anonymous": false,
      "inputs": [
        {
          "indexed": true,
          "internalType": "address",
          "name": "from",
          "type": "address"
        },
        {
          "indexed": true,
          "internalType": "address",
          "name": "to",
          "type": "address"
        },
        {
          "indexed": true,
          "internalType": "uint256",
          "name": "tokenId",
          "type": "uint256"
        }
      ],
      "name": "Transfer",
      "type": "event"
    },
    {
      "anonymous": false,
      "inputs": [
        {
          "indexed": false,
          "internalType": "address",
          "name": "account",
          "type": "address"
        }
      ],
      "name": "Unpaused",
      "type": "event"
    },
    {
      "inputs": [],
      "name": "DEFAULT_ADMIN_ROLE",
      "outputs": [
        {
          "internalType": "bytes32",
          "name": "",
          "type": "bytes32"
        }
      ],
      "stateMutability": "view",
      "type": "function",
      "constant": true
    },
    {
      "inputs": [],
      "name": "MINTER_ROLE",
      "outputs": [
        {
          "internalType": "bytes32",
          "name": "",
          "type": "bytes32"
        }
      ],
      "stateMutability": "view",
      "type": "function",
      "constant": true
    },
    {
      "inputs": [],
      "name": "PAUSER_ROLE",
      "outputs": [
        {
          "internalType": "bytes32",
          "name": "",
          "type": "bytes32"
        }
      ],
      "stateMutability": "view",
      "type": "function",
      "constant": true
    },
    {
      "inputs": [
        {
          "internalType": "address",
          "name": "to",
          "type": "address"
        },
        {
          "internalType": "uint256",
          "name": "tokenId",
          "type": "uint256"
        }
      ],
      "name": "approve",
      "outputs": [],
      "stateMutability": "nonpayable",
      "type": "function"
    },
    {
      "inputs": [
        {
          "internalType": "address",
          "name": "owner",
          "type": "address"
        }
      ],
      "name": "balanceOf",
      "outputs": [
        {
          "internalType": "uint256",
          "name": "",
          "type": "uint256"
        }
      ],
      "stateMutability": "view",
      "type": "function",
      "constant": true
    },
    {
      "inputs": [
        {
          "internalType": "uint256",
          "name": "tokenId",
          "type": "uint256"
        }
      ],
      "name": "burn",
      "outputs": [],
      "stateMutability": "nonpayable",
      "type": "function"
    },
    {
      "inputs": [
        {
          "internalType": "uint256",
          "name": "tokenId",
          "type": "uint256"
        }
      ],
      "name": "getApproved",
      "outputs": [
        {
          "internalType": "address",
          "name": "",
          "type": "address"
        }
      ],
      "stateMutability": "view",
      "type": "function",
      "constant": true
    },
    {
      "inputs": [
        {
          "internalType": "bytes32",
          "name": "role",
          "type": "bytes32"
        }
      ],
      "name": "getRoleAdmin",
      "outputs": [
        {
          "internalType": "bytes32",
          "name": "",
          "type": "bytes32"
        }
      ],
      "stateMutability": "view",
      "type": "function",
      "constant": true
    },
    {
      "inputs": [
        {
          "internalType": "bytes32",
          "name": "role",
          "type": "bytes32"
        },
        {
          "internalType": "uint256",
          "name": "index",
          "type": "uint256"
        }
      ],
      "name": "getRoleMember",
      "outputs": [
        {
          "internalType": "address",
          "name": "",
          "type": "address"
        }
      ],
      "stateMutability": "view",
      "type": "function",
      "constant": true
    },
    {
      "inputs": [
        {
          "internalType": "bytes32",
          "name": "role",
          "type": "bytes32"
        }
      ],
      "name": "getRoleMemberCount",
      "outputs": [
        {
          "internalType": "uint256",
          "name": "",
          "type": "uint256"
        }
      ],
      "stateMutability": "view",
      "type": "function",
      "constant": true
    },
    {
      "inputs": [
        {
          "internalType": "bytes32",
          "name": "role",
          "type": "bytes32"
        },
        {
          "internalType": "address",
          "name": "account",
          "type": "address"
        }
      ],
      "name": "grantRole",
      "outputs": [],
      "stateMutability": "nonpayable",
      "type": "function"
    },
    {
      "inputs": [
        {
          "internalType": "bytes32",
          "name": "role",
          "type": "bytes32"
        },
        {
          "internalType": "address",
          "name": "account",
          "type": "address"
        }
      ],
      "name": "hasRole",
      "outputs": [
        {
          "internalType": "bool",
          "name": "",
          "type": "bool"
        }
      ],
      "stateMutability": "view",
      "type": "function",
      "constant": true
    },
    {
      "inputs": [
        {
          "internalType": "address",
          "name": "owner",
          "type": "address"
        },
        {
          "internalType": "address",
          "name": "operator",
          "type": "address"
        }
      ],
      "name": "isApprovedForAll",
      "outputs": [
        {
          "internalType": "bool",
          "name": "",
          "type": "bool"
        }
      ],
      "stateMutability": "view",
      "type": "function",
      "constant": true
    },
    {
      "inputs": [],
      "name": "name",
      "outputs": [
        {
          "internalType": "string",
          "name": "",
          "type": "string"
        }
      ],
      "stateMutability": "view",
      "type": "function",
      "constant": true
    },
    {
      "inputs": [
        {
          "internalType": "uint256",
          "name": "tokenId",
          "type": "uint256"
        }
      ],
      "name": "ownerOf",
      "outputs": [
        {
          "internalType": "address",
          "name": "",
          "type": "address"
        }
      ],
      "stateMutability": "view",
      "type": "function",
      "constant": true
    },
    {
      "inputs": [],
      "name": "paused",
      "outputs": [
        {
          "internalType": "bool",
          "name": "",
          "type": "bool"
        }
      ],
      "stateMutability": "view",
      "type": "function",
      "constant": true
    },
    {
      "inputs": [
        {
          "internalType": "bytes32",
          "name": "role",
          "type": "bytes32"
        },
        {
          "internalType": "address",
          "name": "account",
          "type": "address"
        }
      ],
      "name": "renounceRole",
      "outputs": [],
      "stateMutability": "nonpayable",
      "type": "function"
    },
    {
      "inputs": [
        {
          "internalType": "bytes32",
          "name": "role",
          "type": "bytes32"
        },
        {
          "internalType": "address",
          "name": "account",
          "type": "address"
        }
      ],
      "name": "revokeRole",
      "outputs": [],
      "stateMutability": "nonpayable",
      "type": "function"
    },
    {
      "inputs": [
        {
          "internalType": "address",
          "name": "from",
          "type": "address"
        },
        {
          "internalType": "address",
          "name": "to",
          "type": "address"
        },
        {
          "internalType": "uint256",
          "name": "tokenId",
          "type": "uint256"
        }
      ],
      "name": "safeTransferFrom",
      "outputs": [],
      "stateMutability": "nonpayable",
      "type": "function"
    },
    {
      "inputs": [
        {
          "internalType": "address",
          "name": "from",
          "type": "address"
        },
        {
          "internalType": "address",
          "name": "to",
          "type": "address"
        },
        {
          "internalType": "uint256",
          "name": "tokenId",
          "type": "uint256"
        },
        {
          "internalType": "bytes",
          "name": "_data",
          "type": "bytes"
        }
      ],
      "name": "safeTransferFrom",
      "outputs": [],
      "stateMutability": "nonpayable",
      "type": "function"
    },
    {
      "inputs": [
        {
          "internalType": "address",
          "name": "operator",
          "type": "address"
        },
        {
          "internalType": "bool",
          "name": "approved",
          "type": "bool"
        }
      ],
      "name": "setApprovalForAll",
      "outputs": [],
      "stateMutability": "nonpayable",
      "type": "function"
    },
    {
      "inputs": [],
      "name": "symbol",
      "outputs": [
        {
          "internalType": "string",
          "name": "",
          "type": "string"
        }
      ],
      "stateMutability": "view",
      "type": "function",
      "constant": true
    },
    {
      "inputs": [
        {
          "internalType": "uint256",
          "name": "index",
          "type": "uint256"
        }
      ],
      "name": "tokenByIndex",
      "outputs": [
        {
          "internalType": "uint256",
          "name": "",
          "type": "uint256"
        }
      ],
      "stateMutability": "view",
      "type": "function",
      "constant": true
    },
    {
      "inputs": [
        {
          "internalType": "address",
          "name": "owner",
          "type": "address"
        },
        {
          "internalType": "uint256",
          "name": "index",
          "type": "uint256"
        }
      ],
      "name": "tokenOfOwnerByIndex",
      "outputs": [
        {
          "internalType": "uint256",
          "name": "",
          "type": "uint256"
        }
      ],
      "stateMutability": "view",
      "type": "function",
      "constant": true
    },
    {
      "inputs": [
        {
          "internalType": "uint256",
          "name": "tokenId",
          "type": "uint256"
        }
      ],
      "name": "tokenURI",
      "outputs": [
        {
          "internalType": "string",
          "name": "",
          "type": "string"
        }
      ],
      "stateMutability": "view",
      "type": "function",
      "constant": true
    },
    {
      "inputs": [],
      "name": "totalSupply",
      "outputs": [
        {
          "internalType": "uint256",
          "name": "",
          "type": "uint256"
        }
      ],
      "stateMutability": "view",
      "type": "function",
      "constant": true
    },
    {
      "inputs": [
        {
          "internalType": "address",
          "name": "from",
          "type": "address"
        },
        {
          "internalType": "address",
          "name": "to",
          "type": "address"
        },
        {
          "internalType": "uint256",
          "name": "tokenId",
          "type": "uint256"
        }
      ],
      "name": "transferFrom",
      "outputs": [],
      "stateMutability": "nonpayable",
      "type": "function"
    },
    {
      "inputs": [
        {
          "internalType": "address",
          "name": "to",
          "type": "address"
        }
      ],
      "name": "mint",
      "outputs": [],
      "stateMutability": "nonpayable",
      "type": "function"
    },
    {
      "inputs": [],
      "name": "pause",
      "outputs": [],
      "stateMutability": "nonpayable",
      "type": "function"
    },
    {
      "inputs": [],
      "name": "unpause",
      "outputs": [],
      "stateMutability": "nonpayable",
      "type": "function"
    },
    {
      "inputs": [
        {
          "internalType": "bytes4",
          "name": "interfaceId",
          "type": "bytes4"
        }
      ],
      "name": "supportsInterface",
      "outputs": [
        {
          "internalType": "bool",
          "name": "",
          "type": "bool"
        }
      ],
      "stateMutability": "view",
      "type": "function",
      "constant": true
    }
  ],
  "bytecode": "0x60806040523480156200001157600080fd5b506040516200503f3803806200503f833981810160405281019062000037919062000514565b8282816002908051906020019062000051929190620003e6565b5080600390805190602001906200006a929190620003e6565b5050506000600c60006101000a81548160ff02191690831515021790555080600e9080519060200190620000a0929190620003e6565b50620000c56000801b620000b96200015060201b60201c565b6200015860201b60201c565b620001067f9f2df0fed2c77648de5860a4cc508cd0818c85b8b8a1ab4ceeef8d981c8956a6620000fa6200015060201b60201c565b6200015860201b60201c565b620001477f65d7a28e3265b37a6474929f336521b332c1681b933f6cb9f3376673440d862a6200013b6200015060201b60201c565b6200015860201b60201c565b50505062000751565b600033905090565b6200016f8282620001a060201b620012e41760201c565b6200019b8160016000858152602001908152602001600020620001b660201b620012f21790919060201c565b505050565b620001b28282620001ee60201b60201c565b5050565b6000620001e6836000018373ffffffffffffffffffffffffffffffffffffffff1660001b620002df60201b60201c565b905092915050565b6200020082826200035960201b60201c565b620002db57600160008084815260200190815260200160002060000160008373ffffffffffffffffffffffffffffffffffffffff1673ffffffffffffffffffffffffffffffffffffffff16815260200190815260200160002060006101000a81548160ff021916908315150217905550620002806200015060201b60201c565b73ffffffffffffffffffffffffffffffffffffffff168173ffffffffffffffffffffffffffffffffffffffff16837f2f8788117e7eff1d82e926ec794901d17c78024a50270940304540a733656f0d60405160405180910390a45b5050565b6000620002f38383620003c360201b60201c565b6200034e57826000018290806001815401808255809150506001900390600052602060002001600090919091909150558260000180549050836001016000848152602001908152602001600020819055506001905062000353565b600090505b92915050565b600080600084815260200190815260200160002060000160008373ffffffffffffffffffffffffffffffffffffffff1673ffffffffffffffffffffffffffffffffffffffff16815260200190815260200160002060009054906101000a900460ff16905092915050565b600080836001016000848152602001908152602001600020541415905092915050565b828054620003f49062000662565b90600052602060002090601f01602090048101928262000418576000855562000464565b82601f106200043357805160ff191683800117855562000464565b8280016001018555821562000464579182015b828111156200046357825182559160200191906001019062000446565b5b50905062000473919062000477565b5090565b5b808211156200049257600081600090555060010162000478565b5090565b6000620004ad620004a784620005f6565b620005cd565b905082815260208101848484011115620004cc57620004cb62000731565b5b620004d98482856200062c565b509392505050565b600082601f830112620004f957620004f86200072c565b5b81516200050b84826020860162000496565b91505092915050565b60008060006060848603121562000530576200052f6200073b565b5b600084015167ffffffffffffffff81111562000551576200055062000736565b5b6200055f86828701620004e1565b935050602084015167ffffffffffffffff81111562000583576200058262000736565b5b6200059186828701620004e1565b925050604084015167ffffffffffffffff811115620005b557620005b462000736565b5b620005c386828701620004e1565b9150509250925092565b6000620005d9620005ec565b9050620005e7828262000698565b919050565b6000604051905090565b600067ffffffffffffffff821115620006145762000613620006fd565b5b6200061f8262000740565b9050602081019050919050565b60005b838110156200064c5780820151818401526020810190506200062f565b838111156200065c576000848401525b50505050565b600060028204905060018216806200067b57607f821691505b60208210811415620006925762000691620006ce565b5b50919050565b620006a38262000740565b810181811067ffffffffffffffff82111715620006c557620006c4620006fd565b5b80604052505050565b7f4e487b7100000000000000000000000000000000000000000000000000000000600052602260045260246000fd5b7f4e487b7100000000000000000000000000000000000000000000000000000000600052604160045260246000fd5b600080fd5b600080fd5b600080fd5b600080fd5b6000601f19601f8301169050919050565b6148de80620007616000396000f3fe608060405234801561001057600080fd5b50600436106101e55760003560e01c80636352211e1161010f578063a22cb465116100a2578063d539139311610071578063d5391393146105a0578063d547741f146105be578063e63ab1e9146105da578063e985e9c5146105f8576101e5565b8063a22cb46514610508578063b88d4fde14610524578063c87b56dd14610540578063ca15c87314610570576101e5565b80639010d07c116100de5780639010d07c1461046c57806391d148541461049c57806395d89b41146104cc578063a217fddf146104ea576101e5565b80636352211e146103e65780636a6278421461041657806370a08231146104325780638456cb5914610462576101e5565b80632f2ff15d1161018757806342842e0e1161015657806342842e0e1461036057806342966c681461037c5780634f6ccce7146103985780635c975abb146103c8576101e5565b80632f2ff15d146102ee5780632f745c591461030a57806336568abe1461033a5780633f4ba83a14610356576101e5565b8063095ea7b3116101c3578063095ea7b31461026857806318160ddd1461028457806323b872dd146102a2578063248a9ca3146102be576101e5565b806301ffc9a7146101ea57806306fdde031461021a578063081812fc14610238575b600080fd5b61020460048036038101906101ff919061325b565b610628565b604051610211919061385a565b60405180910390f35b61022261063a565b60405161022f9190613890565b60405180910390f35b610252600480360381019061024d91906132b5565b6106cc565b60405161025f91906137f3565b60405180910390f35b610282600480360381019061027d919061316e565b610751565b005b61028c610869565b6040516102999190613bf2565b60405180910390f35b6102bc60048036038101906102b79190613058565b610876565b005b6102d860048036038101906102d391906131ae565b6108d6565b6040516102e59190613875565b60405180910390f35b610308600480360381019061030391906131db565b6108f5565b005b610324600480360381019061031f919061316e565b610929565b6040516103319190613bf2565b60405180910390f35b610354600480360381019061034f91906131db565b6109ce565b005b61035e610a02565b005b61037a60048036038101906103759190613058565b610a7c565b005b610396600480360381019061039191906132b5565b610a9c565b005b6103b260048036038101906103ad91906132b5565b610af8565b6040516103bf9190613bf2565b60405180910390f35b6103d0610b69565b6040516103dd919061385a565b60405180910390f35b61040060048036038101906103fb91906132b5565b610b80565b60405161040d91906137f3565b60405180910390f35b610430600480360381019061042b9190612feb565b610c32565b005b61044c60048036038101906104479190612feb565b610cc2565b6040516104599190613bf2565b60405180910390f35b61046a610d7a565b005b6104866004803603810190610481919061321b565b610df4565b60405161049391906137f3565b60405180910390f35b6104b660048036038101906104b191906131db565b610e23565b6040516104c3919061385a565b60405180910390f35b6104d4610e8d565b6040516104e19190613890565b60405180910390f35b6104f2610f1f565b6040516104ff9190613875565b60405180910390f35b610522600480360381019061051d919061312e565b610f26565b005b61053e600480360381019061053991906130ab565b6110a7565b005b61055a600480360381019061055591906132b5565b611109565b6040516105679190613890565b60405180910390f35b61058a600480360381019061058591906131ae565b6111b0565b6040516105979190613bf2565b60405180910390f35b6105a86111d4565b6040516105b59190613875565b60405180910390f35b6105d860048036038101906105d391906131db565b6111f8565b005b6105e261122c565b6040516105ef9190613875565b60405180910390f35b610612600480360381019061060d9190613018565b611250565b60405161061f919061385a565b60405180910390f35b600061063382611322565b9050919050565b60606002805461064990613ea5565b80601f016020809104026020016040519081016040528092919081815260200182805461067590613ea5565b80156106c25780601f10610697576101008083540402835291602001916106c2565b820191906000526020600020905b8154815290600101906020018083116106a557829003601f168201915b5050505050905090565b60006106d78261139c565b610716576040517f08c379a000000000000000000000000000000000000000000000000000000000815260040161070d90613ab2565b60405180910390fd5b6006600083815260200190815260200160002060009054906101000a900473ffffffffffffffffffffffffffffffffffffffff169050919050565b600061075c82610b80565b90508073ffffffffffffffffffffffffffffffffffffffff168373ffffffffffffffffffffffffffffffffffffffff1614156107cd576040517f08c379a00000000000000000000000000000000000000000000000000000000081526004016107c490613b12565b60405180910390fd5b8073ffffffffffffffffffffffffffffffffffffffff166107ec611408565b73ffffffffffffffffffffffffffffffffffffffff16148061081b575061081a81610815611408565b611250565b5b61085a576040517f08c379a000000000000000000000000000000000000000000000000000000000815260040161085190613a32565b60405180910390fd5b6108648383611410565b505050565b6000600a80549050905090565b610887610881611408565b826114c9565b6108c6576040517f08c379a00000000000000000000000000000000000000000000000000000000081526004016108bd90613b32565b60405180910390fd5b6108d18383836115a7565b505050565b6000806000838152602001908152602001600020600101549050919050565b6108ff8282611803565b61092481600160008581526020019081526020016000206112f290919063ffffffff16565b505050565b600061093483610cc2565b8210610975576040517f08c379a000000000000000000000000000000000000000000000000000000000815260040161096c90613932565b60405180910390fd5b600860008473ffffffffffffffffffffffffffffffffffffffff1673ffffffffffffffffffffffffffffffffffffffff168152602001908152602001600020600083815260200190815260200160002054905092915050565b6109d8828261182c565b6109fd81600160008581526020019081526020016000206118af90919063ffffffff16565b505050565b610a337f65d7a28e3265b37a6474929f336521b332c1681b933f6cb9f3376673440d862a610a2e611408565b610e23565b610a72576040517f08c379a0000000000000000000000000000000000000000000000000000000008152600401610a6990613bb2565b60405180910390fd5b610a7a6118df565b565b610a97838383604051806020016040528060008152506110a7565b505050565b610aad610aa7611408565b826114c9565b610aec576040517f08c379a0000000000000000000000000000000000000000000000000000000008152600401610ae390613b92565b60405180910390fd5b610af581611981565b50565b6000610b02610869565b8210610b43576040517f08c379a0000000000000000000000000000000000000000000000000000000008152600401610b3a90613b52565b60405180910390fd5b600a8281548110610b5757610b5661403e565b5b90600052602060002001549050919050565b6000600c60009054906101000a900460ff16905090565b6000806004600084815260200190815260200160002060009054906101000a900473ffffffffffffffffffffffffffffffffffffffff169050600073ffffffffffffffffffffffffffffffffffffffff168173ffffffffffffffffffffffffffffffffffffffff161415610c29576040517f08c379a0000000000000000000000000000000000000000000000000000000008152600401610c2090613a72565b60405180910390fd5b80915050919050565b610c637f9f2df0fed2c77648de5860a4cc508cd0818c85b8b8a1ab4ceeef8d981c8956a6610c5e611408565b610e23565b610ca2576040517f08c379a0000000000000000000000000000000000000000000000000000000008152600401610c9990613b72565b60405180910390fd5b610cb581610cb0600d611a92565b611aa0565b610cbf600d611c6e565b50565b60008073ffffffffffffffffffffffffffffffffffffffff168273ffffffffffffffffffffffffffffffffffffffff161415610d33576040517f08c379a0000000000000000000000000000000000000000000000000000000008152600401610d2a90613a52565b60405180910390fd5b600560008373ffffffffffffffffffffffffffffffffffffffff1673ffffffffffffffffffffffffffffffffffffffff168152602001908152602001600020549050919050565b610dab7f65d7a28e3265b37a6474929f336521b332c1681b933f6cb9f3376673440d862a610da6611408565b610e23565b610dea576040517f08c379a0000000000000000000000000000000000000000000000000000000008152600401610de190613992565b60405180910390fd5b610df2611c84565b565b6000610e1b8260016000868152602001908152602001600020611d2790919063ffffffff16565b905092915050565b600080600084815260200190815260200160002060000160008373ffffffffffffffffffffffffffffffffffffffff1673ffffffffffffffffffffffffffffffffffffffff16815260200190815260200160002060009054906101000a900460ff16905092915050565b606060038054610e9c90613ea5565b80601f0160208091040260200160405190810160405280929190818152602001828054610ec890613ea5565b8015610f155780601f10610eea57610100808354040283529160200191610f15565b820191906000526020600020905b815481529060010190602001808311610ef857829003601f168201915b5050505050905090565b6000801b81565b610f2e611408565b73ffffffffffffffffffffffffffffffffffffffff168273ffffffffffffffffffffffffffffffffffffffff161415610f9c576040517f08c379a0000000000000000000000000000000000000000000000000000000008152600401610f93906139d2565b60405180910390fd5b8060076000610fa9611408565b73ffffffffffffffffffffffffffffffffffffffff1673ffffffffffffffffffffffffffffffffffffffff16815260200190815260200160002060008473ffffffffffffffffffffffffffffffffffffffff1673ffffffffffffffffffffffffffffffffffffffff16815260200190815260200160002060006101000a81548160ff0219169083151502179055508173ffffffffffffffffffffffffffffffffffffffff16611056611408565b73ffffffffffffffffffffffffffffffffffffffff167f17307eab39ab6107e8899845ad3d59bd9653f200f220920489ca2b5937696c318360405161109b919061385a565b60405180910390a35050565b6110b86110b2611408565b836114c9565b6110f7576040517f08c379a00000000000000000000000000000000000000000000000000000000081526004016110ee90613b32565b60405180910390fd5b61110384848484611d41565b50505050565b60606111148261139c565b611153576040517f08c379a000000000000000000000000000000000000000000000000000000000815260040161114a90613af2565b60405180910390fd5b600061115d611d9d565b9050600081511161117d57604051806020016040528060008152506111a8565b8061118784611e2f565b604051602001611198929190613795565b6040516020818303038152906040525b915050919050565b60006111cd60016000848152602001908152602001600020611f90565b9050919050565b7f9f2df0fed2c77648de5860a4cc508cd0818c85b8b8a1ab4ceeef8d981c8956a681565b6112028282611fa5565b61122781600160008581526020019081526020016000206118af90919063ffffffff16565b505050565b7f65d7a28e3265b37a6474929f336521b332c1681b933f6cb9f3376673440d862a81565b6000600760008473ffffffffffffffffffffffffffffffffffffffff1673ffffffffffffffffffffffffffffffffffffffff16815260200190815260200160002060008373ffffffffffffffffffffffffffffffffffffffff1673ffffffffffffffffffffffffffffffffffffffff16815260200190815260200160002060009054906101000a900460ff16905092915050565b6112ee8282611fce565b5050565b600061131a836000018373ffffffffffffffffffffffffffffffffffffffff1660001b6120ae565b905092915050565b60007f780e9d63000000000000000000000000000000000000000000000000000000007bffffffffffffffffffffffffffffffffffffffffffffffffffffffff1916827bffffffffffffffffffffffffffffffffffffffffffffffffffffffff1916148061139557506113948261211e565b5b9050919050565b60008073ffffffffffffffffffffffffffffffffffffffff166004600084815260200190815260200160002060009054906101000a900473ffffffffffffffffffffffffffffffffffffffff1673ffffffffffffffffffffffffffffffffffffffff1614159050919050565b600033905090565b816006600083815260200190815260200160002060006101000a81548173ffffffffffffffffffffffffffffffffffffffff021916908373ffffffffffffffffffffffffffffffffffffffff160217905550808273ffffffffffffffffffffffffffffffffffffffff1661148383610b80565b73ffffffffffffffffffffffffffffffffffffffff167f8c5be1e5ebec7d5bd14f71427d1e84f3dd0314c0f7b2291e5b200ac8c7c3b92560405160405180910390a45050565b60006114d48261139c565b611513576040517f08c379a000000000000000000000000000000000000000000000000000000000815260040161150a906139f2565b60405180910390fd5b600061151e83610b80565b90508073ffffffffffffffffffffffffffffffffffffffff168473ffffffffffffffffffffffffffffffffffffffff16148061158d57508373ffffffffffffffffffffffffffffffffffffffff16611575846106cc565b73ffffffffffffffffffffffffffffffffffffffff16145b8061159e575061159d8185611250565b5b91505092915050565b8273ffffffffffffffffffffffffffffffffffffffff166115c782610b80565b73ffffffffffffffffffffffffffffffffffffffff161461161d576040517f08c379a000000000000000000000000000000000000000000000000000000000815260040161161490613ad2565b60405180910390fd5b600073ffffffffffffffffffffffffffffffffffffffff168273ffffffffffffffffffffffffffffffffffffffff16141561168d576040517f08c379a0000000000000000000000000000000000000000000000000000000008152600401611684906139b2565b60405180910390fd5b611698838383612200565b6116a3600082611410565b6001600560008573ffffffffffffffffffffffffffffffffffffffff1673ffffffffffffffffffffffffffffffffffffffff16815260200190815260200160002060008282546116f39190613d87565b925050819055506001600560008473ffffffffffffffffffffffffffffffffffffffff1673ffffffffffffffffffffffffffffffffffffffff168152602001908152602001600020600082825461174a9190613ca6565b92505081905550816004600083815260200190815260200160002060006101000a81548173ffffffffffffffffffffffffffffffffffffffff021916908373ffffffffffffffffffffffffffffffffffffffff160217905550808273ffffffffffffffffffffffffffffffffffffffff168473ffffffffffffffffffffffffffffffffffffffff167fddf252ad1be2c89b69c2b068fc378daa952ba7f163c4a11628f55a4df523b3ef60405160405180910390a4505050565b61180c826108d6565b61181d81611818611408565b612210565b6118278383611fce565b505050565b611834611408565b73ffffffffffffffffffffffffffffffffffffffff168173ffffffffffffffffffffffffffffffffffffffff16146118a1576040517f08c379a000000000000000000000000000000000000000000000000000000000815260040161189890613bd2565b60405180910390fd5b6118ab82826122ad565b5050565b60006118d7836000018373ffffffffffffffffffffffffffffffffffffffff1660001b61238e565b905092915050565b6118e7610b69565b611926576040517f08c379a000000000000000000000000000000000000000000000000000000000815260040161191d90613912565b60405180910390fd5b6000600c60006101000a81548160ff0219169083151502179055507f5db9ee0a495bf2e6ff9c91a7834c1ba4fdd244a5e8aa4e537bd38aeae4b073aa61196a611408565b60405161197791906137f3565b60405180910390a1565b600061198c82610b80565b905061199a81600084612200565b6119a5600083611410565b6001600560008373ffffffffffffffffffffffffffffffffffffffff1673ffffffffffffffffffffffffffffffffffffffff16815260200190815260200160002060008282546119f59190613d87565b925050819055506004600083815260200190815260200160002060006101000a81549073ffffffffffffffffffffffffffffffffffffffff021916905581600073ffffffffffffffffffffffffffffffffffffffff168273ffffffffffffffffffffffffffffffffffffffff167fddf252ad1be2c89b69c2b068fc378daa952ba7f163c4a11628f55a4df523b3ef60405160405180910390a45050565b600081600001549050919050565b600073ffffffffffffffffffffffffffffffffffffffff168273ffffffffffffffffffffffffffffffffffffffff161415611b10576040517f08c379a0000000000000000000000000000000000000000000000000000000008152600401611b0790613a92565b60405180910390fd5b611b198161139c565b15611b59576040517f08c379a0000000000000000000000000000000000000000000000000000000008152600401611b5090613972565b60405180910390fd5b611b6560008383612200565b6001600560008473ffffffffffffffffffffffffffffffffffffffff1673ffffffffffffffffffffffffffffffffffffffff1681526020019081526020016000206000828254611bb59190613ca6565b92505081905550816004600083815260200190815260200160002060006101000a81548173ffffffffffffffffffffffffffffffffffffffff021916908373ffffffffffffffffffffffffffffffffffffffff160217905550808273ffffffffffffffffffffffffffffffffffffffff16600073ffffffffffffffffffffffffffffffffffffffff167fddf252ad1be2c89b69c2b068fc378daa952ba7f163c4a11628f55a4df523b3ef60405160405180910390a45050565b6001816000016000828254019250508190555050565b611c8c610b69565b15611ccc576040517f08c379a0000000000000000000000000000000000000000000000000000000008152600401611cc390613a12565b60405180910390fd5b6001600c60006101000a81548160ff0219169083151502179055507f62e78cea01bee320cd4e420270b5ea74000d11b0c9f74754ebdbfc544b05a258611d10611408565b604051611d1d91906137f3565b60405180910390a1565b6000611d36836000018361249a565b60001c905092915050565b611d4c8484846115a7565b611d588484848461250e565b611d97576040517f08c379a0000000000000000000000000000000000000000000000000000000008152600401611d8e90613952565b60405180910390fd5b50505050565b6060600e8054611dac90613ea5565b80601f0160208091040260200160405190810160405280929190818152602001828054611dd890613ea5565b8015611e255780601f10611dfa57610100808354040283529160200191611e25565b820191906000526020600020905b815481529060010190602001808311611e0857829003601f168201915b5050505050905090565b60606000821415611e77576040518060400160405280600181526020017f30000000000000000000000000000000000000000000000000000000000000008152509050611f8b565b600082905060005b60008214611ea9578080611e9290613f08565b915050600a82611ea29190613cfc565b9150611e7f565b60008167ffffffffffffffff811115611ec557611ec461406d565b5b6040519080825280601f01601f191660200182016040528015611ef75781602001600182028036833780820191505090505b5090505b60008514611f8457600182611f109190613d87565b9150600a85611f1f9190613f51565b6030611f2b9190613ca6565b60f81b818381518110611f4157611f4061403e565b5b60200101907effffffffffffffffffffffffffffffffffffffffffffffffffffffffffffff1916908160001a905350600a85611f7d9190613cfc565b9450611efb565b8093505050505b919050565b6000611f9e826000016126a5565b9050919050565b611fae826108d6565b611fbf81611fba611408565b612210565b611fc983836122ad565b505050565b611fd88282610e23565b6120aa57600160008084815260200190815260200160002060000160008373ffffffffffffffffffffffffffffffffffffffff1673ffffffffffffffffffffffffffffffffffffffff16815260200190815260200160002060006101000a81548160ff02191690831515021790555061204f611408565b73ffffffffffffffffffffffffffffffffffffffff168173ffffffffffffffffffffffffffffffffffffffff16837f2f8788117e7eff1d82e926ec794901d17c78024a50270940304540a733656f0d60405160405180910390a45b5050565b60006120ba83836126b6565b612113578260000182908060018154018082558091505060019003906000526020600020016000909190919091505582600001805490508360010160008481526020019081526020016000208190555060019050612118565b600090505b92915050565b60007f80ac58cd000000000000000000000000000000000000000000000000000000007bffffffffffffffffffffffffffffffffffffffffffffffffffffffff1916827bffffffffffffffffffffffffffffffffffffffffffffffffffffffff191614806121e957507f5b5e139f000000000000000000000000000000000000000000000000000000007bffffffffffffffffffffffffffffffffffffffffffffffffffffffff1916827bffffffffffffffffffffffffffffffffffffffffffffffffffffffff1916145b806121f957506121f8826126d9565b5b9050919050565b61220b838383612753565b505050565b61221a8282610e23565b6122a95761223f8173ffffffffffffffffffffffffffffffffffffffff1660146127ab565b61224d8360001c60206127ab565b60405160200161225e9291906137b9565b6040516020818303038152906040526040517f08c379a00000000000000000000000000000000000000000000000000000000081526004016122a09190613890565b60405180910390fd5b5050565b6122b78282610e23565b1561238a57600080600084815260200190815260200160002060000160008373ffffffffffffffffffffffffffffffffffffffff1673ffffffffffffffffffffffffffffffffffffffff16815260200190815260200160002060006101000a81548160ff02191690831515021790555061232f611408565b73ffffffffffffffffffffffffffffffffffffffff168173ffffffffffffffffffffffffffffffffffffffff16837ff6391f5c32d9c69d2a47ea670b442974b53935d1edc7fd64eb21e047a839171b60405160405180910390a45b5050565b6000808360010160008481526020019081526020016000205490506000811461248e5760006001826123c09190613d87565b90506000600186600001805490506123d89190613d87565b905060008660000182815481106123f2576123f161403e565b5b90600052602060002001549050808760000184815481106124165761241561403e565b5b90600052602060002001819055508387600101600083815260200190815260200160002081905550866000018054806124525761245161400f565b5b60019003818190600052602060002001600090559055866001016000878152602001908152602001600020600090556001945050505050612494565b60009150505b92915050565b6000818360000180549050116124e5576040517f08c379a00000000000000000000000000000000000000000000000000000000081526004016124dc906138b2565b60405180910390fd5b8260000182815481106124fb576124fa61403e565b5b9060005260206000200154905092915050565b600061252f8473ffffffffffffffffffffffffffffffffffffffff166129e7565b15612698578373ffffffffffffffffffffffffffffffffffffffff1663150b7a02612558611408565b8786866040518563ffffffff1660e01b815260040161257a949392919061380e565b602060405180830381600087803b15801561259457600080fd5b505af19250505080156125c557506040513d601f19601f820116820180604052508101906125c29190613288565b60015b612648573d80600081146125f5576040519150601f19603f3d011682016040523d82523d6000602084013e6125fa565b606091505b50600081511415612640576040517f08c379a000000000000000000000000000000000000000000000000000000000815260040161263790613952565b60405180910390fd5b805181602001fd5b63150b7a0260e01b7bffffffffffffffffffffffffffffffffffffffffffffffffffffffff1916817bffffffffffffffffffffffffffffffffffffffffffffffffffffffff19161491505061269d565b600190505b949350505050565b600081600001805490509050919050565b600080836001016000848152602001908152602001600020541415905092915050565b60007f5a05180f000000000000000000000000000000000000000000000000000000007bffffffffffffffffffffffffffffffffffffffffffffffffffffffff1916827bffffffffffffffffffffffffffffffffffffffffffffffffffffffff1916148061274c575061274b826129fa565b5b9050919050565b61275e838383612a74565b612766610b69565b156127a6576040517f08c379a000000000000000000000000000000000000000000000000000000000815260040161279d906138f2565b60405180910390fd5b505050565b6060600060028360026127be9190613d2d565b6127c89190613ca6565b67ffffffffffffffff8111156127e1576127e061406d565b5b6040519080825280601f01601f1916602001820160405280156128135781602001600182028036833780820191505090505b5090507f30000000000000000000000000000000000000000000000000000000000000008160008151811061284b5761284a61403e565b5b60200101907effffffffffffffffffffffffffffffffffffffffffffffffffffffffffffff1916908160001a9053507f7800000000000000000000000000000000000000000000000000000000000000816001815181106128af576128ae61403e565b5b60200101907effffffffffffffffffffffffffffffffffffffffffffffffffffffffffffff1916908160001a905350600060018460026128ef9190613d2d565b6128f99190613ca6565b90505b6001811115612999577f3031323334353637383961626364656600000000000000000000000000000000600f86166010811061293b5761293a61403e565b5b1a60f81b8282815181106129525761295161403e565b5b60200101907effffffffffffffffffffffffffffffffffffffffffffffffffffffffffffff1916908160001a905350600485901c94508061299290613e7b565b90506128fc565b50600084146129dd576040517f08c379a00000000000000000000000000000000000000000000000000000000081526004016129d4906138d2565b60405180910390fd5b8091505092915050565b600080823b905060008111915050919050565b60007f7965db0b000000000000000000000000000000000000000000000000000000007bffffffffffffffffffffffffffffffffffffffffffffffffffffffff1916827bffffffffffffffffffffffffffffffffffffffffffffffffffffffff19161480612a6d5750612a6c82612b88565b5b9050919050565b612a7f838383612bf2565b600073ffffffffffffffffffffffffffffffffffffffff168373ffffffffffffffffffffffffffffffffffffffff161415612ac257612abd81612bf7565b612b01565b8173ffffffffffffffffffffffffffffffffffffffff168373ffffffffffffffffffffffffffffffffffffffff1614612b0057612aff8382612c40565b5b5b600073ffffffffffffffffffffffffffffffffffffffff168273ffffffffffffffffffffffffffffffffffffffff161415612b4457612b3f81612dad565b612b83565b8273ffffffffffffffffffffffffffffffffffffffff168273ffffffffffffffffffffffffffffffffffffffff1614612b8257612b818282612e7e565b5b5b505050565b60007f01ffc9a7000000000000000000000000000000000000000000000000000000007bffffffffffffffffffffffffffffffffffffffffffffffffffffffff1916827bffffffffffffffffffffffffffffffffffffffffffffffffffffffff1916149050919050565b505050565b600a80549050600b600083815260200190815260200160002081905550600a81908060018154018082558091505060019003906000526020600020016000909190919091505550565b60006001612c4d84610cc2565b612c579190613d87565b9050600060096000848152602001908152602001600020549050818114612d3c576000600860008673ffffffffffffffffffffffffffffffffffffffff1673ffffffffffffffffffffffffffffffffffffffff168152602001908152602001600020600084815260200190815260200160002054905080600860008773ffffffffffffffffffffffffffffffffffffffff1673ffffffffffffffffffffffffffffffffffffffff168152602001908152602001600020600084815260200190815260200160002081905550816009600083815260200190815260200160002081905550505b6009600084815260200190815260200160002060009055600860008573ffffffffffffffffffffffffffffffffffffffff1673ffffffffffffffffffffffffffffffffffffffff16815260200190815260200160002060008381526020019081526020016000206000905550505050565b60006001600a80549050612dc19190613d87565b90506000600b60008481526020019081526020016000205490506000600a8381548110612df157612df061403e565b5b9060005260206000200154905080600a8381548110612e1357612e1261403e565b5b906000526020600020018190555081600b600083815260200190815260200160002081905550600b600085815260200190815260200160002060009055600a805480612e6257612e6161400f565b5b6001900381819060005260206000200160009055905550505050565b6000612e8983610cc2565b905081600860008573ffffffffffffffffffffffffffffffffffffffff1673ffffffffffffffffffffffffffffffffffffffff168152602001908152602001600020600083815260200190815260200160002081905550806009600084815260200190815260200160002081905550505050565b6000612f10612f0b84613c32565b613c0d565b905082815260208101848484011115612f2c57612f2b6140a1565b5b612f37848285613e39565b509392505050565b600081359050612f4e81614835565b92915050565b600081359050612f638161484c565b92915050565b600081359050612f7881614863565b92915050565b600081359050612f8d8161487a565b92915050565b600081519050612fa28161487a565b92915050565b600082601f830112612fbd57612fbc61409c565b5b8135612fcd848260208601612efd565b91505092915050565b600081359050612fe581614891565b92915050565b600060208284031215613001576130006140ab565b5b600061300f84828501612f3f565b91505092915050565b6000806040838503121561302f5761302e6140ab565b5b600061303d85828601612f3f565b925050602061304e85828601612f3f565b9150509250929050565b600080600060608486031215613071576130706140ab565b5b600061307f86828701612f3f565b935050602061309086828701612f3f565b92505060406130a186828701612fd6565b9150509250925092565b600080600080608085870312156130c5576130c46140ab565b5b60006130d387828801612f3f565b94505060206130e487828801612f3f565b93505060406130f587828801612fd6565b925050606085013567ffffffffffffffff811115613116576131156140a6565b5b61312287828801612fa8565b91505092959194509250565b60008060408385031215613145576131446140ab565b5b600061315385828601612f3f565b925050602061316485828601612f54565b9150509250929050565b60008060408385031215613185576131846140ab565b5b600061319385828601612f3f565b92505060206131a485828601612fd6565b9150509250929050565b6000602082840312156131c4576131c36140ab565b5b60006131d284828501612f69565b91505092915050565b600080604083850312156131f2576131f16140ab565b5b600061320085828601612f69565b925050602061321185828601612f3f565b9150509250929050565b60008060408385031215613232576132316140ab565b5b600061324085828601612f69565b925050602061325185828601612fd6565b9150509250929050565b600060208284031215613271576132706140ab565b5b600061327f84828501612f7e565b91505092915050565b60006020828403121561329e5761329d6140ab565b5b60006132ac84828501612f93565b91505092915050565b6000602082840312156132cb576132ca6140ab565b5b60006132d984828501612fd6565b91505092915050565b6132eb81613dbb565b82525050565b6132fa81613dcd565b82525050565b61330981613dd9565b82525050565b600061331a82613c63565b6133248185613c79565b9350613334818560208601613e48565b61333d816140b0565b840191505092915050565b600061335382613c6e565b61335d8185613c8a565b935061336d818560208601613e48565b613376816140b0565b840191505092915050565b600061338c82613c6e565b6133968185613c9b565b93506133a6818560208601613e48565b80840191505092915050565b60006133bf602283613c8a565b91506133ca826140c1565b604082019050919050565b60006133e2602083613c8a565b91506133ed82614110565b602082019050919050565b6000613405602b83613c8a565b915061341082614139565b604082019050919050565b6000613428601483613c8a565b915061343382614188565b602082019050919050565b600061344b602b83613c8a565b9150613456826141b1565b604082019050919050565b600061346e603283613c8a565b915061347982614200565b604082019050919050565b6000613491601c83613c8a565b915061349c8261424f565b602082019050919050565b60006134b4603e83613c8a565b91506134bf82614278565b604082019050919050565b60006134d7602483613c8a565b91506134e2826142c7565b604082019050919050565b60006134fa601983613c8a565b915061350582614316565b602082019050919050565b600061351d602c83613c8a565b91506135288261433f565b604082019050919050565b6000613540601083613c8a565b915061354b8261438e565b602082019050919050565b6000613563603883613c8a565b915061356e826143b7565b604082019050919050565b6000613586602a83613c8a565b915061359182614406565b604082019050919050565b60006135a9602983613c8a565b91506135b482614455565b604082019050919050565b60006135cc602083613c8a565b91506135d7826144a4565b602082019050919050565b60006135ef602c83613c8a565b91506135fa826144cd565b604082019050919050565b6000613612602983613c8a565b915061361d8261451c565b604082019050919050565b6000613635602f83613c8a565b91506136408261456b565b604082019050919050565b6000613658602183613c8a565b9150613663826145ba565b604082019050919050565b600061367b603183613c8a565b915061368682614609565b604082019050919050565b600061369e602c83613c8a565b91506136a982614658565b604082019050919050565b60006136c1601783613c9b565b91506136cc826146a7565b601782019050919050565b60006136e4603d83613c8a565b91506136ef826146d0565b604082019050919050565b6000613707603083613c8a565b91506137128261471f565b604082019050919050565b600061372a604083613c8a565b91506137358261476e565b604082019050919050565b600061374d601183613c9b565b9150613758826147bd565b601182019050919050565b6000613770602f83613c8a565b915061377b826147e6565b604082019050919050565b61378f81613e2f565b82525050565b60006137a18285613381565b91506137ad8284613381565b91508190509392505050565b60006137c4826136b4565b91506137d08285613381565b91506137db82613740565b91506137e78284613381565b91508190509392505050565b600060208201905061380860008301846132e2565b92915050565b600060808201905061382360008301876132e2565b61383060208301866132e2565b61383d6040830185613786565b818103606083015261384f818461330f565b905095945050505050565b600060208201905061386f60008301846132f1565b92915050565b600060208201905061388a6000830184613300565b92915050565b600060208201905081810360008301526138aa8184613348565b905092915050565b600060208201905081810360008301526138cb816133b2565b9050919050565b600060208201905081810360008301526138eb816133d5565b9050919050565b6000602082019050818103600083015261390b816133f8565b9050919050565b6000602082019050818103600083015261392b8161341b565b9050919050565b6000602082019050818103600083015261394b8161343e565b9050919050565b6000602082019050818103600083015261396b81613461565b9050919050565b6000602082019050818103600083015261398b81613484565b9050919050565b600060208201905081810360008301526139ab816134a7565b9050919050565b600060208201905081810360008301526139cb816134ca565b9050919050565b600060208201905081810360008301526139eb816134ed565b9050919050565b60006020820190508181036000830152613a0b81613510565b9050919050565b60006020820190508181036000830152613a2b81613533565b9050919050565b60006020820190508181036000830152613a4b81613556565b9050919050565b60006020820190508181036000830152613a6b81613579565b9050919050565b60006020820190508181036000830152613a8b8161359c565b9050919050565b60006020820190508181036000830152613aab816135bf565b9050919050565b60006020820190508181036000830152613acb816135e2565b9050919050565b60006020820190508181036000830152613aeb81613605565b9050919050565b60006020820190508181036000830152613b0b81613628565b9050919050565b60006020820190508181036000830152613b2b8161364b565b9050919050565b60006020820190508181036000830152613b4b8161366e565b9050919050565b60006020820190508181036000830152613b6b81613691565b9050919050565b60006020820190508181036000830152613b8b816136d7565b9050919050565b60006020820190508181036000830152613bab816136fa565b9050919050565b60006020820190508181036000830152613bcb8161371d565b9050919050565b60006020820190508181036000830152613beb81613763565b9050919050565b6000602082019050613c076000830184613786565b92915050565b6000613c17613c28565b9050613c238282613ed7565b919050565b6000604051905090565b600067ffffffffffffffff821115613c4d57613c4c61406d565b5b613c56826140b0565b9050602081019050919050565b600081519050919050565b600081519050919050565b600082825260208201905092915050565b600082825260208201905092915050565b600081905092915050565b6000613cb182613e2f565b9150613cbc83613e2f565b9250827fffffffffffffffffffffffffffffffffffffffffffffffffffffffffffffffff03821115613cf157613cf0613f82565b5b828201905092915050565b6000613d0782613e2f565b9150613d1283613e2f565b925082613d2257613d21613fb1565b5b828204905092915050565b6000613d3882613e2f565b9150613d4383613e2f565b9250817fffffffffffffffffffffffffffffffffffffffffffffffffffffffffffffffff0483118215151615613d7c57613d7b613f82565b5b828202905092915050565b6000613d9282613e2f565b9150613d9d83613e2f565b925082821015613db057613daf613f82565b5b828203905092915050565b6000613dc682613e0f565b9050919050565b60008115159050919050565b6000819050919050565b60007fffffffff0000000000000000000000000000000000000000000000000000000082169050919050565b600073ffffffffffffffffffffffffffffffffffffffff82169050919050565b6000819050919050565b82818337600083830152505050565b60005b83811015613e66578082015181840152602081019050613e4b565b83811115613e75576000848401525b50505050565b6000613e8682613e2f565b91506000821415613e9a57613e99613f82565b5b600182039050919050565b60006002820490506001821680613ebd57607f821691505b60208210811415613ed157613ed0613fe0565b5b50919050565b613ee0826140b0565b810181811067ffffffffffffffff82111715613eff57613efe61406d565b5b80604052505050565b6000613f1382613e2f565b91507fffffffffffffffffffffffffffffffffffffffffffffffffffffffffffffffff821415613f4657613f45613f82565b5b600182019050919050565b6000613f5c82613e2f565b9150613f6783613e2f565b925082613f7757613f76613fb1565b5b828206905092915050565b7f4e487b7100000000000000000000000000000000000000000000000000000000600052601160045260246000fd5b7f4e487b7100000000000000000000000000000000000000000000000000000000600052601260045260246000fd5b7f4e487b7100000000000000000000000000000000000000000000000000000000600052602260045260246000fd5b7f4e487b7100000000000000000000000000000000000000000000000000000000600052603160045260246000fd5b7f4e487b7100000000000000000000000000000000000000000000000000000000600052603260045260246000fd5b7f4e487b7100000000000000000000000000000000000000000000000000000000600052604160045260246000fd5b600080fd5b600080fd5b600080fd5b600080fd5b6000601f19601f8301169050919050565b7f456e756d657261626c655365743a20696e646578206f7574206f6620626f756e60008201527f6473000000000000000000000000000000000000000000000000000000000000602082015250565b7f537472696e67733a20686578206c656e67746820696e73756666696369656e74600082015250565b7f4552433732315061757361626c653a20746f6b656e207472616e73666572207760008201527f68696c6520706175736564000000000000000000000000000000000000000000602082015250565b7f5061757361626c653a206e6f7420706175736564000000000000000000000000600082015250565b7f455243373231456e756d657261626c653a206f776e657220696e646578206f7560008201527f74206f6620626f756e6473000000000000000000000000000000000000000000602082015250565b7f4552433732313a207472616e7366657220746f206e6f6e20455243373231526560008201527f63656976657220696d706c656d656e7465720000000000000000000000000000602082015250565b7f4552433732313a20746f6b656e20616c7265616479206d696e74656400000000600082015250565b7f4552433732315072657365744d696e7465725061757365724175746f49643a2060008201527f6d75737420686176652070617573657220726f6c6520746f2070617573650000602082015250565b7f4552433732313a207472616e7366657220746f20746865207a65726f2061646460008201527f7265737300000000000000000000000000000000000000000000000000000000602082015250565b7f4552433732313a20617070726f766520746f2063616c6c657200000000000000600082015250565b7f4552433732313a206f70657261746f7220717565727920666f72206e6f6e657860008201527f697374656e7420746f6b656e0000000000000000000000000000000000000000602082015250565b7f5061757361626c653a2070617573656400000000000000000000000000000000600082015250565b7f4552433732313a20617070726f76652063616c6c6572206973206e6f74206f7760008201527f6e6572206e6f7220617070726f76656420666f7220616c6c0000000000000000602082015250565b7f4552433732313a2062616c616e636520717565727920666f7220746865207a6560008201527f726f206164647265737300000000000000000000000000000000000000000000602082015250565b7f4552433732313a206f776e657220717565727920666f72206e6f6e657869737460008201527f656e7420746f6b656e0000000000000000000000000000000000000000000000602082015250565b7f4552433732313a206d696e7420746f20746865207a65726f2061646472657373600082015250565b7f4552433732313a20617070726f76656420717565727920666f72206e6f6e657860008201527f697374656e7420746f6b656e0000000000000000000000000000000000000000602082015250565b7f4552433732313a207472616e73666572206f6620746f6b656e2074686174206960008201527f73206e6f74206f776e0000000000000000000000000000000000000000000000602082015250565b7f4552433732314d657461646174613a2055524920717565727920666f72206e6f60008201527f6e6578697374656e7420746f6b656e0000000000000000000000000000000000602082015250565b7f4552433732313a20617070726f76616c20746f2063757272656e74206f776e6560008201527f7200000000000000000000000000000000000000000000000000000000000000602082015250565b7f4552433732313a207472616e736665722063616c6c6572206973206e6f74206f60008201527f776e6572206e6f7220617070726f766564000000000000000000000000000000602082015250565b7f455243373231456e756d657261626c653a20676c6f62616c20696e646578206f60008201527f7574206f6620626f756e64730000000000000000000000000000000000000000602082015250565b7f416363657373436f6e74726f6c3a206163636f756e7420000000000000000000600082015250565b7f4552433732315072657365744d696e7465725061757365724175746f49643a2060008201527f6d7573742068617665206d696e74657220726f6c6520746f206d696e74000000602082015250565b7f4552433732314275726e61626c653a2063616c6c6572206973206e6f74206f7760008201527f6e6572206e6f7220617070726f76656400000000000000000000000000000000602082015250565b7f4552433732315072657365744d696e7465725061757365724175746f49643a2060008201527f6d75737420686176652070617573657220726f6c6520746f20756e7061757365602082015250565b7f206973206d697373696e6720726f6c6520000000000000000000000000000000600082015250565b7f416363657373436f6e74726f6c3a2063616e206f6e6c792072656e6f756e636560008201527f20726f6c657320666f722073656c660000000000000000000000000000000000602082015250565b61483e81613dbb565b811461484957600080fd5b50565b61485581613dcd565b811461486057600080fd5b50565b61486c81613dd9565b811461487757600080fd5b50565b61488381613de3565b811461488e57600080fd5b50565b61489a81613e2f565b81146148a557600080fd5b5056fea2646970667358221220af46f71d58c811bcacde174548c0d2088fd202d9713dd321bc1a3a902fccc7b064736f6c63430008060033",
  "immutableReferences": {},
  "source": "// SPDX-License-Identifier: MIT\n\npragma solidity ^0.8.0;\n\nimport \"../ERC721.sol\";\nimport \"../extensions/ERC721Enumerable.sol\";\nimport \"../extensions/ERC721Burnable.sol\";\nimport \"../extensions/ERC721Pausable.sol\";\nimport \"../../../access/AccessControlEnumerable.sol\";\nimport \"../../../utils/Context.sol\";\nimport \"../../../utils/Counters.sol\";\n\n/**\n * @dev {ERC721} token, including:\n *\n *  - ability for holders to burn (destroy) their tokens\n *  - a minter role that allows for token minting (creation)\n *  - a pauser role that allows to stop all token transfers\n *  - token ID and URI autogeneration\n *\n * This contract uses {AccessControl} to lock permissioned functions using the\n * different roles - head to its documentation for details.\n *\n * The account that deploys the contract will be granted the minter and pauser\n * roles, as well as the default admin role, which will let it grant both minter\n * and pauser roles to other accounts.\n */\ncontract ERC721PresetMinterPauserAutoId is Context, AccessControlEnumerable, ERC721Enumerable, ERC721Burnable, ERC721Pausable {\n    using Counters for Counters.Counter;\n\n    bytes32 public constant MINTER_ROLE = keccak256(\"MINTER_ROLE\");\n    bytes32 public constant PAUSER_ROLE = keccak256(\"PAUSER_ROLE\");\n\n    Counters.Counter private _tokenIdTracker;\n\n    string private _baseTokenURI;\n\n    /**\n     * @dev Grants `DEFAULT_ADMIN_ROLE`, `MINTER_ROLE` and `PAUSER_ROLE` to the\n     * account that deploys the contract.\n     *\n     * Token URIs will be autogenerated based on `baseURI` and their token IDs.\n     * See {ERC721-tokenURI}.\n     */\n    constructor(string memory name, string memory symbol, string memory baseTokenURI) ERC721(name, symbol) {\n        _baseTokenURI = baseTokenURI;\n\n        _setupRole(DEFAULT_ADMIN_ROLE, _msgSender());\n\n        _setupRole(MINTER_ROLE, _msgSender());\n        _setupRole(PAUSER_ROLE, _msgSender());\n    }\n\n    function _baseURI() internal view virtual override returns (string memory) {\n        return _baseTokenURI;\n    }\n\n    /**\n     * @dev Creates a new token for `to`. Its token ID will be automatically\n     * assigned (and available on the emitted {IERC721-Transfer} event), and the token\n     * URI autogenerated based on the base URI passed at construction.\n     *\n     * See {ERC721-_mint}.\n     *\n     * Requirements:\n     *\n     * - the caller must have the `MINTER_ROLE`.\n     */\n    function mint(address to) public virtual {\n        require(hasRole(MINTER_ROLE, _msgSender()), \"ERC721PresetMinterPauserAutoId: must have minter role to mint\");\n\n        // We cannot just use balanceOf to create the new tokenId because tokens\n        // can be burned (destroyed), so we need a separate counter.\n        _mint(to, _tokenIdTracker.current());\n        _tokenIdTracker.increment();\n    }\n\n    /**\n     * @dev Pauses all token transfers.\n     *\n     * See {ERC721Pausable} and {Pausable-_pause}.\n     *\n     * Requirements:\n     *\n     * - the caller must have the `PAUSER_ROLE`.\n     */\n    function pause() public virtual {\n        require(hasRole(PAUSER_ROLE, _msgSender()), \"ERC721PresetMinterPauserAutoId: must have pauser role to pause\");\n        _pause();\n    }\n\n    /**\n     * @dev Unpauses all token transfers.\n     *\n     * See {ERC721Pausable} and {Pausable-_unpause}.\n     *\n     * Requirements:\n     *\n     * - the caller must have the `PAUSER_ROLE`.\n     */\n    function unpause() public virtual {\n        require(hasRole(PAUSER_ROLE, _msgSender()), \"ERC721PresetMinterPauserAutoId: must have pauser role to unpause\");\n        _unpause();\n    }\n\n    function _beforeTokenTransfer(address from, address to, uint256 tokenId) internal virtual override(ERC721, ERC721Enumerable, ERC721Pausable) {\n        super._beforeTokenTransfer(from, to, tokenId);\n    }\n\n    /**\n     * @dev See {IERC165-supportsInterface}.\n     */\n    function supportsInterface(bytes4 interfaceId) public view virtual override(AccessControlEnumerable, ERC721, ERC721Enumerable) returns (bool) {\n        return super.supportsInterface(interfaceId);\n    }\n}\n",
  "sourcePath": "@openzeppelin/contracts/token/ERC721/presets/ERC721PresetMinterPauserAutoId.sol",
  "compiler": {
    "name": "solc",
    "version": "0.8.6+commit.11564f7e.Emscripten.clang"
  },
  "schemaVersion": "3.4.1",
  "updatedAt": "2021-07-06T07:36:01.422Z",
  "networkType": "quorum",
  "devdoc": {
    "details": "{ERC721} token, including:  - ability for holders to burn (destroy) their tokens  - a minter role that allows for token minting (creation)  - a pauser role that allows to stop all token transfers  - token ID and URI autogeneration This contract uses {AccessControl} to lock permissioned functions using the different roles - head to its documentation for details. The account that deploys the contract will be granted the minter and pauser roles, as well as the default admin role, which will let it grant both minter and pauser roles to other accounts.",
    "kind": "dev",
    "methods": {
      "approve(address,uint256)": {
        "details": "See {IERC721-approve}."
      },
      "balanceOf(address)": {
        "details": "See {IERC721-balanceOf}."
      },
      "burn(uint256)": {
        "details": "Burns `tokenId`. See {ERC721-_burn}. Requirements: - The caller must own `tokenId` or be an approved operator."
      },
      "constructor": {
        "details": "Grants `DEFAULT_ADMIN_ROLE`, `MINTER_ROLE` and `PAUSER_ROLE` to the account that deploys the contract. Token URIs will be autogenerated based on `baseURI` and their token IDs. See {ERC721-tokenURI}."
      },
      "getApproved(uint256)": {
        "details": "See {IERC721-getApproved}."
      },
      "getRoleAdmin(bytes32)": {
        "details": "Returns the admin role that controls `role`. See {grantRole} and {revokeRole}. To change a role's admin, use {_setRoleAdmin}."
      },
      "getRoleMember(bytes32,uint256)": {
        "details": "Returns one of the accounts that have `role`. `index` must be a value between 0 and {getRoleMemberCount}, non-inclusive. Role bearers are not sorted in any particular way, and their ordering may change at any point. WARNING: When using {getRoleMember} and {getRoleMemberCount}, make sure you perform all queries on the same block. See the following https://forum.openzeppelin.com/t/iterating-over-elements-on-enumerableset-in-openzeppelin-contracts/2296[forum post] for more information."
      },
      "getRoleMemberCount(bytes32)": {
        "details": "Returns the number of accounts that have `role`. Can be used together with {getRoleMember} to enumerate all bearers of a role."
      },
      "grantRole(bytes32,address)": {
        "details": "Overload {grantRole} to track enumerable memberships"
      },
      "hasRole(bytes32,address)": {
        "details": "Returns `true` if `account` has been granted `role`."
      },
      "isApprovedForAll(address,address)": {
        "details": "See {IERC721-isApprovedForAll}."
      },
      "mint(address)": {
        "details": "Creates a new token for `to`. Its token ID will be automatically assigned (and available on the emitted {IERC721-Transfer} event), and the token URI autogenerated based on the base URI passed at construction. See {ERC721-_mint}. Requirements: - the caller must have the `MINTER_ROLE`."
      },
      "name()": {
        "details": "See {IERC721Metadata-name}."
      },
      "ownerOf(uint256)": {
        "details": "See {IERC721-ownerOf}."
      },
      "pause()": {
        "details": "Pauses all token transfers. See {ERC721Pausable} and {Pausable-_pause}. Requirements: - the caller must have the `PAUSER_ROLE`."
      },
      "paused()": {
        "details": "Returns true if the contract is paused, and false otherwise."
      },
      "renounceRole(bytes32,address)": {
        "details": "Overload {renounceRole} to track enumerable memberships"
      },
      "revokeRole(bytes32,address)": {
        "details": "Overload {revokeRole} to track enumerable memberships"
      },
      "safeTransferFrom(address,address,uint256)": {
        "details": "See {IERC721-safeTransferFrom}."
      },
      "safeTransferFrom(address,address,uint256,bytes)": {
        "details": "See {IERC721-safeTransferFrom}."
      },
      "setApprovalForAll(address,bool)": {
        "details": "See {IERC721-setApprovalForAll}."
      },
      "supportsInterface(bytes4)": {
        "details": "See {IERC165-supportsInterface}."
      },
      "symbol()": {
        "details": "See {IERC721Metadata-symbol}."
      },
      "tokenByIndex(uint256)": {
        "details": "See {IERC721Enumerable-tokenByIndex}."
      },
      "tokenOfOwnerByIndex(address,uint256)": {
        "details": "See {IERC721Enumerable-tokenOfOwnerByIndex}."
      },
      "tokenURI(uint256)": {
        "details": "See {IERC721Metadata-tokenURI}."
      },
      "totalSupply()": {
        "details": "See {IERC721Enumerable-totalSupply}."
      },
      "transferFrom(address,address,uint256)": {
        "details": "See {IERC721-transferFrom}."
      },
      "unpause()": {
        "details": "Unpauses all token transfers. See {ERC721Pausable} and {Pausable-_unpause}. Requirements: - the caller must have the `PAUSER_ROLE`."
      }
    },
    "version": 1
  },
  "userdoc": {
    "kind": "user",
    "methods": {},
    "version": 1
  }
}